:100000000C9434000C9451000C9451000C94510049
:100010000C9451000C9451000C9451000C9451001C
:100020000C9451000C9451000C9451000C946900F4
:100030000C9453000C9451000C9451000C945100FA
:100040000C9451000C9451000C9451000C94E1005C
:100050000C9451000C9451000C9451000C945100DC
:100060000C9451000C94510011241FBECFEFD8E026
:10007000DEBFCDBF11E0A0E0B1E0E2E5F8E002C0F4
:1000800005900D92A430B107D9F721E0A4E0B1E0CA
:1000900001C01D92AB30B207E1F70E940B010C9436
:1000A00027040C9400001F920F920FB60F92112498
:1000B0008F93EF93FF9315B8EFE6F0E080818B7F8D
:1000C0008083FF91EF918F910F900FBE0F901F9043
:1000D00018951F920F920FB60F9211240F931F9332
:1000E0002F933F934F935F936F937F938F939F9340
:1000F000AF93BF93EF93FF93CF93DF93CDB7DEB76B
:100100006597DEBFCDBF81E085B980916F008460C7
:1001100080936F008091060190910701A0910801E2
:10012000B0910901BF93AF939F938F9380E091E0CB
:100130009F938F938E010F5F1F4F1F930F930E940A
:100140004F018091C1000FB6F894DEBF0FBECDBF46
:1001500085FD09C010930501009304018091C10041
:1001600080628093C1008091060190910701A09167
:100170000801B09109010196A11DB11D80930601EE
:1001800090930701A0930801B093090165960FB6FB
:10019000F894DEBF0FBECDBFDF91CF91FF91EF91FD
:1001A000BF91AF919F918F917F916F915F914F918F
:1001B0003F912F911F910F910F900FBE0F901F90A5
:1001C00018951F920F920FB60F9211248F93EF93F1
:1001D000FF9380910A01E0910401F0910501E80F7D
:1001E000F11D8081882341F08093C60080910A012F
:1001F0008F5F80930A0107C010920A018091C100AD
:100200008F7D8093C100FF91EF918F910F900FBE72
:100210000F901F90189510920A01109206011092EB
:100220000701109208011092090187E690E090936F
:10023000C5008093C4001092C00088E18093C10083
:1002400086E08093C2008091810088608093810065
:1002500080918100846080938100109285001092CB
:10026000840083E294EF909389008093880084E374
:100270009CE090938B0080938A0080916F00826055
:1002800080936F0083B7817F83BF209A789483B770
:10029000816083BF889583B78E7F83BFF8CFAEE040
:1002A000B0E0E5E5F1E00C94FE030D891E8986E0DF
:1002B0008C831A8309838FEF9FE79E838D83AE0122
:1002C000475E5F4F6F89788DCE0101960E94720163
:1002D0002F813885F801E20FF31F10822E96E4E09B
:1002E0000C941A04ACE0B0E0E8E7F1E00C94F00301
:1002F0007C016B018A01FC0117821682838181FFD8
:10030000BDC1CE0101964C01F7019381F60193FD29
:10031000859193FF81916F01882309F4ABC18532E8
:1003200039F493FD859193FF81916F01853229F412
:10033000B70190E00E945A03E7CF512C312C20E006
:100340002032A0F48B3269F030F4803259F08332DD
:1003500069F420612CC08D3239F0803339F421608A
:1003600026C02260246023C0286021C027FD27C04A
:1003700030ED380F3A3078F426FF06C0FAE05F9E81
:10038000300D1124532E13C08AE0389E300D1124F5
:10039000332E20620CC08E3221F426FD6BC1206406
:1003A00006C08C3611F4206802C0883641F4F6018C
:1003B00093FD859193FF81916F018111C1CF982F9A
:1003C0009F7D9554933028F40C5F1F4FFFE3F98312
:1003D0000DC0833631F0833771F0833509F05BC08F
:1003E00022C0F801808189830E5F1F4F442443940B
:1003F000512C540115C03801F2E06F0E711CF80148
:10040000A080B18026FF03C0652D70E002C06FEFB1
:100410007FEFC5012C870E944F032C0183012C859F
:100420002F77222E17C03801F2E06F0E711CF801F1
:10043000A080B18026FF03C0652D70E002C06FEF81
:100440007FEFC5012C870E9444032C012C85206876
:10045000222E830123FC1BC0832D90E048165906F1
:10046000B0F4B70180E290E00E945A033A94F4CFCE
:10047000F50127FC859127FE81915F01B70190E08E
:100480000E945A0331103A94F1E04F1A5108411476
:10049000510471F7E5C0843611F0893639F5F80159
:1004A00027FF07C060817181828193810C5F1F4F9C
:1004B00008C060817181072E000C880B990B0E5FBC
:1004C0001F4F2F76722E97FF09C0909580957095DB
:1004D00061957F4F8F4F9F4F2068722E2AE030E04A
:1004E000A4010E949203A82EA81844C0853729F4BD
:1004F0002F7EB22E2AE030E025C0F22FF97FBF2EEA
:100500008F36C1F018F4883579F0B4C0803719F00F
:10051000883721F0AFC02F2F2061B22EB4FE0DC05E
:100520008B2D8460B82E09C024FF0AC09F2F9660CF
:10053000B92E06C028E030E005C020E130E002C05E
:1005400020E132E0F801B7FE07C06081718182814D
:1005500093810C5F1F4F06C06081718180E090E045
:100560000E5F1F4FA4010E949203A82EA818FB2D16
:10057000FF777F2E76FE0BC0372D3E7FA51450F4FB
:1005800074FE0AC072FC08C0372D3E7E05C0BA2C2E
:10059000372D03C0BA2C01C0B52C34FF0DC0FE01AD
:1005A000EA0DF11D8081803311F4397E09C032FFDC
:1005B00006C0B394B39404C0832F867809F0B39433
:1005C00033FD13C030FF06C05A2CB31418F4530C7B
:1005D0005B18B32CB31468F4B70180E290E03C8759
:1005E0000E945A03B3943C85F5CFB31410F43B1822
:1005F00001C0312C34FF12C0B70180E390E03C878A
:100600000E945A033C8532FF17C031FD03C088E7C2
:1006100090E002C088E590E0B7010CC0832F867897
:1006200059F031FF02C08BE201C080E237FD8DE25C
:10063000B70190E00E945A03A51438F4B70180E393
:1006400090E00E945A035A94F7CFAA94F401EA0D5D
:10065000F11D8081B70190E00E945A03A110F5CFEF
:10066000332009F451CEB70180E290E00E945A0392
:100670003A94F6CFF7018681978102C08FEF9FEF02
:100680002C96E2E10C940C04FC0105906150704042
:100690000110D8F7809590958E0F9F1F0895FC014B
:1006A0006150704001900110D8F7809590958E0FA1
:1006B0009F1F08950F931F93CF93DF93FB01238117
:1006C00021FD03C08FEF9FEF28C022FF16C0468197
:1006D0005781248135814217530744F4A081B181A9
:1006E0009D012F5F3F4F318320838C93268137817B
:1006F0002F5F3F4F3783268310C0EB01092F182F40
:100700000084F185E02D0995892BE1F68E819F818A
:1007100001969F838E83812F902FDF91CF911F9120
:100720000F910895FA01AA27283051F1203181F163
:10073000E8946F936E7F6E5F7F4F8F4F9F4FAF4FE9
:10074000B1E03ED0B4E03CD0670F781F891F9A1FFC
:10075000A11D680F791F8A1F911DA11D6A0F711DB0
:10076000811D911DA11D20D009F468943F912AE0BC
:10077000269F11243019305D3193DEF6CF010895A4
:10078000462F4770405D4193B3E00FD0C9F7F6CFD5
:10079000462F4F70405D4A3318F0495D31FD40529D
:1007A000419302D0A9F7EACFB4E0A6959795879533
:1007B00077956795BA95C9F7009761057105089512
:1007C0009B01AC010A2E06945795479537952795BE
:1007D000BA95C9F7620F731F841F951FA01D089556
:1007E0002F923F924F925F926F927F928F929F9241
:1007F000AF92BF92CF92DF92EF92FF920F931F932F
:10080000CF93DF93CDB7DEB7CA1BDB0B0FB6F894DF
:10081000DEBF0FBECDBF09942A88398848885F841F
:100820006E847D848C849B84AA84B984C884DF8090
:10083000EE80FD800C811B81AA81B981CE0FD11D74
:100840000FB6F894DEBF0FBECDBFED010895F8944A
:02085000FFCFD8
:04085200256C75009C
:107E0000112484B714BE81FFF0D085E080938100F7
:107E100082E08093C00088E18093C10086E0809377
:107E2000C20080E18093C4008EE0C9D0259A86E02C
:107E300020E33CEF91E0309385002093840096BBD3
:107E4000B09BFECF1D9AA8958150A9F7CC24DD24C4
:107E500088248394B5E0AB2EA1E19A2EF3E0BF2EE7
:107E6000A2D0813461F49FD0082FAFD0023811F036
:107E7000013811F484E001C083E08DD089C08234E0
:107E800011F484E103C0853419F485E0A6D080C0E4
:107E9000853579F488D0E82EFF2485D0082F10E0AE
:107EA000102F00270E291F29000F111F8ED06801E7
:107EB0006FC0863521F484E090D080E0DECF843638
:107EC00009F040C070D06FD0082F6DD080E0C81688
:107ED00080E7D80618F4F601B7BEE895C0E0D1E017
:107EE00062D089930C17E1F7F0E0CF16F0E7DF06D8
:107EF00018F0F601B7BEE89568D007B600FCFDCFD4
:107F0000A601A0E0B1E02C9130E011968C91119780
:107F100090E0982F8827822B932B1296FA010C0160
:107F200087BEE89511244E5F5F4FF1E0A038BF0790
:107F300051F7F601A7BEE89507B600FCFDCF97BE46
:107F4000E89526C08437B1F42ED02DD0F82E2BD052
:107F50003CD0F601EF2C8F010F5F1F4F84911BD097
:107F6000EA94F801C1F70894C11CD11CFA94CF0C13
:107F7000D11C0EC0853739F428D08EE10CD085E9AC
:107F80000AD08FE07ACF813511F488E018D01DD067
:107F900080E101D065CF982F8091C00085FFFCCF94
:107FA0009093C60008958091C00087FFFCCF809118
:107FB000C00084FD01C0A8958091C6000895E0E648
:107FC000F0E098E1908380830895EDDF803219F02E
:107FD00088E0F5DFFFCF84E1DECF1F93182FE3DFCA
:107FE0001150E9F7F2DF1F91089580E0E8DFEE27F6
:047FF000FF270994CA
:027FFE00040479
:0400000300007E007B
:00000001FF