:100000000C94BD130C94CF130C94CF130C94CF13FA
:100010000C94CF130C94CF130C94CF130C94CF13D8
:100020000C94CF130C94CF130C94CF130C94D113C6
:100030000C94CF130C94CF130C94CF130C94CF13B8
:100040000C94CF130C94CF130C94CF130C94CF13A8
:100050000C94CF130C94CF130C94CF130C94CF1398
:100060000C94CF130C94CF13807F80807F7F7F8090
:10007000808080818080808080817F80818080807E
:1000800080817F7F80808080808080807F7F818072
:100090007F8181808080807F807F808080817F8061
:1000A0008080807F80807F80818080808080808051
:1000B0008181808080817F80818081807F8080813C
:1000C000818180808080808080808080808180802D
:1000D00080807F7F8080808080807F8080807F7F25
:1000E0008080808080808180808181807F8080800E
:1000F0007F8080808080808080807F80807F808003
:100100008080807F808080807F7F8080807F7F7FF5
:100110008080808080807F808080808080808080E0
:1001200080807F7F7F807F8080808080807F7F80D5
:10013000807F807F807F7F808080807F80807F80C5
:100140007F8080817F80807F807F7D7C7D7F7F82BC
:100150008385868888888888888787858483828144
:100160007F7F7F7D7C7C7B7B7C7B7B7C7D7E7D80C1
:1001700080808081808181818181818080807F7F7A
:100180007F7E7E7E7E7E7E7E7E7D7E7E7E7E7E7D90
:100190007E7E7E7E7E7E7C7C7C7D7E7F7F82848573
:1001A0008687888888888887888585838282817FFA
:1001B0007F7D7C7C7C7C7B7B7C7C7C7D7E7E7F8071
:1001C000808181818181828181807F7F7E7E7D7D32
:1001D0007C7B7B7C7B7C7C7C7D7C7C7D7C7D7E7F5A
:1001E0007F7F8283848586888888878887878586BD
:1001F000848482818181807F7E7D7D7C7C7C7D7C0E
:100200007D7D7D7F7E7E7E7E7F7F7F7E7F7F7F7F09
:100210007F7E7E7E7E7E7E7E7D7E7E7E7D7E7E7D00
:100220007F7E7F7E7D7D7E7E7F7F7F8181838485D3
:100230008686868787868686858584838281818077
:100240007F7F7D7D7D7C7C7C7D7D7E7E7E7E7F80D4
:100250007F808080808080807F7F7E7E7E7E7D7DAF
:100260007D7D7C7D7E7D7D7E7E7E7F7E7F7E7E7FB2
:100270007F7F80818182838485858586868685854A
:100280008485858483828281818080807F7F7F7F57
:100290007F7E7E7D7E7E7F7E7F7F7F7E7F7F7E7F77
:1002A0007F7F7F7F7F7F7F7F7F7F7E7F7E7D7E7E64
:1002B0007E7D7E7E7D7E7E7E7D7E7E7F7F80818256
:1002C00082838585848585858585858484848382EC
:1002D000828281818181818080807F807F7F7E7E1C
:1002E0007F7E7E7E7E7E7E7E7E7E7E7F7E7F7F7F29
:1002F0007F7E7F7F7E7F7F7E7F7E7F7E7F7F7F7E14
:100300007E7E7E7F7E8080808182838383838585DD
:1003100085858485858484848383828382818181A9
:100320008181807F7F7F7F7E7E7E7E7E7E7E7E7EE1
:100330007E7E7F7E7F7F7F7F80807F7F7F808080CB
:10034000807F807F7F7F7E7F7E7F7E7F7E7F7E7FC0
:100350007F80808080818282828283848383838481
:1003600082838382828282828181818181817F8076
:1003700080807F7F7E7F7E7E7E7E7E7E7E7F7E7F94
:10038000807F808080808182837F7F7E81817F7F6C
:100390007E817E81807F7E7D7E7E7E7E7E7E7F7F73
:1003A0008080808181828181828282828181828239
:1003B0008282818282828281817F8080818080812D
:1003C0007F807E807E7F7F7F7F7F7F7F7F7F80803B
:1003D000808181807F80818080808181807F7F7E1D
:1003E0007E7F7E7E7F7E807F807E80808180828017
:1003F0007F828082808281828281818181828180EC
:1004000081808180818182808181808080808080E4
:100410008080807F827F7D7F7E807F807F817E7FE6
:100420007F7F807E807E7F7E7E807F80807F7F80DA
:100430007F807F817E8180807F81838082818382B3
:100440008381838181828381838082807F80808297
:100450007F827F838080818180818182817E807D97
:100460007D7D7D7E7C7F7E7D7E7E7E7E7F7E7F7EAF
:100470007E807D7E7C7E7C7C7D7F7E81828284838B
:100480008687888588868584858481828280817F2D
:100490007F7E7F7F7E7F7F7E7F807F808082818066
:1004A0007F8180807E82807D7D7F7C7B7C7B7C7B6E
:1004B0007C7A7D797A787876767A787B7C8485897F
:1004C0008D8E9291918F908A8686807E7B7B7A7AC0
:1004D0007A7B7D7D7F80838180838282828182801E
:1004E000818080807F807D7E7D7C7D7B7978777444
:1004F000747673747572727071797A79828E909253
:10050000999F9D9A99978F86827F78747375747579
:10051000777C7F7F838687868588848181828180BE
:100520008082827F807F7D7A7A7978767374726F29
:100530006F6F6E6C6B6968727D7C83969E9BA2ACBC
:10054000A79F9B9690837B79766E6F74767679827F
:100550008786898E8D8684847F7B7B7C7C7C7F8272
:1005600084858585837F7B76726E6A686666686837
:1005700066666779858292A8A9A2ACB1A094928A96
:1005800080747276716D7880818288918F8A8D8C6B
:1005900086817C7B7875777B7C7E83868586868367
:1005A0007E7C78706C6B6866656868676264798663
:1005B0008193ABACA3ACB19D918E877B727174714A
:1005C000707A8283848A908F8A8C8A84807E7B77FB
:1005D000797B7B7C8184838486827D7A776F696571
:1005E00064626063656260647C888599B2B0A5AF1F
:1005F000B1998D8C85776E727571717E8381868CD1
:10060000908C8B8C8782817E7978797B7D7E8184CA
:10061000838385837C78776E6665645F5E61615CE9
:100620005D78898598B3B2A7B0B29B8F8C847970BE
:10063000717471707A7F80838B908E8E8F8E898695
:1006400083807C7C7C7C7B7D7F7F80817F797673DF
:100650006D666462605E5C5A5D7785869DB2B0AA05
:10066000B3AE99918E84797273727070797A7B804F
:10067000878C8D8D91908A8986807D7D7B797B7E2C
:100680007E7D7D7F7C7775726B6665645F5D595793
:100690006B808091ADB0A8AFB29F95938B81777539
:1006A00077716E7679777B8186888A8F908F8F8C31
:1006B0008681817F7B7B7D7C7B7A7C77747170689F
:1006C000676765605C5960797D819EADA6A8B4A816
:1006D0009997948A7F7B7C776E747874767C7F831D
:1006E000868A8E8C8D8E89848584807F817F7D7CB7
:1006F0007C7973706E686362625D5C585A737E8148
:1007000099ACA8A7B1AA9B9A948F867F807E7374B8
:100710007975777A7B8182838C89888E8B858586B3
:1007200080818382807F7E7D7672716A6461605B86
:1007300057535B7279809AA8A4A9B1A89C99978E07
:100740008480827B75787976797B7B8282858987C4
:10075000898C8684848181818180817E7E7D757390
:10076000706A6565615C5854657676889FA1A3AC14
:10077000ACA29C9A978C8281817A77797777787A04
:100780007F80818786858886848483838481818233
:1007900080807E7B76726D6865605B58525C6E739C
:1007A00080939EA3A9ACA6A29F9B928A86827D7805
:1007B00078777778767C80808589868A888583813A
:1007C0007F807F7E7F7E7E7D7B7875726E6B6765B6
:1007D000605A5A676F738291969CA5A3A1A09E9AB6
:1007E000928D8C867F7F7C797B77787D7D7E8282FF
:1007F000848784848483838280817E7E7D7C7A78F2
:100800007674706C6B69635E5E666B737F899099BA
:100810009D9C9EA09C9996918E8A8583807D7C7BF1
:100820007A7B7C7C7E7E81828283838382828281CA
:10083000817F7E7E7B797673706C6A6764605F63AC
:1008400069717A838C979B9EA2A4A3A19C99958E93
:100850008886827E7B7A78777778797A7B7F8080CA
:10086000818183828282838381817F7D7C7A74719E
:100870006E6A67625D5C62697179848F989DA1A5DB
:10088000A7A5A29C99948D8785807E7C79767677C2
:100890007778797B7E7D7D7D7E7E7E7F7F807F8089
:1008A0008181807F7D7B77736F6B66615D5D636A3D
:1008B000727B8690989EA2A6A7A6A19D98938C86EF
:1008C000837F7C7A7775767678797A7D7E7E7E8076
:1008D000807F7F80807F7E7F7F7F7E7D7C79747349
:1008E0006F6B6764615F646B747C8590999FA4A84B
:1008F000AAA8A59F9B968F8883807B777574737356
:1009000075787A7B7E808181838282807F7F7E7E04
:100910007F7F7E7D7A7875716F6D6A6865626265CA
:100920006C737D86919BA0A5AAABAAA6A09B968C72
:1009300085807B7572717070717376797B7E808231
:1009400083838585838281807F7E7D7B7A787675BF
:1009500072706D6C6A68676464686F757E87919B5E
:10096000A1A5AAABA9A6A09A938A837D7874727177
:1009700070717374777A7D8083848585878684829D
:1009800082807F7E7C7B7A7777767472706F6F6DF2
:100990006C6B69696E737A828B949CA1A4A7A9A6DB
:1009A000A19A948F867E7A77737172727375777A53
:1009B0007D8083848686868786858382817E7D7B13
:1009C0007A7977767574737372727170706F6D6FF8
:1009D00072767C838A91989C9EA1A09F9B95908B18
:1009E00085807C7A777877797A7A7C7D7F8182833B
:1009F000838486858483817E7E7D7A7A7B7B7A7907
:100A00007878777777777877767673727273777A84
:100A10007F848B9194989B9C9A999793908D8886CC
:100A2000858381818180807F7E7F7E7D7C7C7C7CD4
:100A30007D7E7E80828181828283838281807E7DB1
:100A40007B787673726E6D696764615F5F5E5F620B
:100A500064686D72777C8084888D90939696979861
:100A60009795938F8C8986827D7B797778787A7C4D
:100A70007F828688898A8A8A89868582807E7B7B36
:100A800079777674737271706D6D69686665656784
:100A90006A6D71757A80858B8F92959797989796E6
:100AA00094918E8B888584828180808081808182F0
:100AB0008182828182838282828281818180807E22
:100AC0007D7C7A79787876777776777777767676A9
:100AD00075767778797B7D7F81828587888B8E8E0E
:100AE0009191919291908E8C8B8886858282817F64
:100AF0007F7E7D7E7D7D7D7E7E7F7F7F8081828308
:100B00008383848484838484838381817F7E7C7ACD
:100B10007A7A78777777787A7B7D7F818485878901
:100B20008A8B8B8C8C8C8C8B8B8B8989878684832E
:100B3000828281807E807F80828284858687888889
:100B40008888888786868585848383848383828159
:100B5000817F7E7D7A79797978787A797A7C7D7FE0
:100B60007F8181828284848586878788888A8C8F2A
:100B70008F8D8A8B89888789888785858482818003
:100B8000818486898C8E8E8F8E8E8C8784848382DE
:100B90008080817F7E7C7C7B797874716D6B696BE2
:100BA0006F73767A80868B919394959694908D89C5
:100BB0008683827F80828385898B8A8B8D8B8A8ACC
:100BC000878786898B8C8C8E9090918F8D8B8A886D
:100BD00085807E7B7876716F6E6D6B6866625C5522
:100BE0005D707F8389969FAAAFA899918F887B7348
:100BF0006C666C777C7B869198A0A39B9592908580
:100C00007A7370717A808288949FA6A7A1978F8A41
:100C1000827973707074787C7C80817E7A766F665E
:100C2000605A4E41527288919BA6A8B3B4A88A7BA1
:100C3000746E6768696677899699A2A4A09E9B8C5A
:100C40007871706B686D707788989D9FA2A49F9A49
:100C5000908377777A7C7E84898C908F8A817B7170
:100C6000675D56514D4E4F4A53789DB2B6B8ADA60A
:100C7000A69F84685D575A687B818897A3ABADA80F
:100C80009587827E766D6D6C747F8B8F9396999B22
:100C900099978F89878583838587888B8C8B8C8AAE
:100CA000847F76726C68635F5C5C5E5E5C566789AD
:100CB000A7B1AEA99A95938D7A695D5C687E91958E
:100CC0009A9EA1A2A297867B726D6E73777A8188B5
:100CD0008F959895918D8B898A8A858484878B8E50
:100CE0008E8B8A8684807B746D6A686563646461B8
:100CF0006363615C66819FB2B3AE9F9088847D6FB1
:100D000065606472899AA2A3A19D95938D8578717F
:100D100071747E868E8E8C8E919291908A86878A4F
:100D20008D8D8D8A8A8B8F8E8C8984807C7975706D
:100D30006C6866656361615F5C55597597B1B9B759
:100D4000A9958986837B6E67656E8296A4A7A39A10
:100D5000918B87817A736C6B74818C92929493954A
:100D60009998948E8D8B8D91918F8C8988878786A9
:100D7000817D7874726F6D6A68666766686968619C
:100D80005C6A89A5B4B6AF9A857D7A776F6763642C
:100D9000718297A5A7A1968E8682827F7973747DD2
:100DA00087909598969292928F8C8A8A88888A8D5D
:100DB0008E8C8B8988878785817B767471706E6C49
:100DC000696866676663595767839EABB2AD9C8955
:100DD000817F7C756E6B686F7D92A0A5A0998D83D5
:100DE0007F81817B7574787E879198989692929294
:100DF0009392918D87848686868687868484838075
:100E00007D7874716D6B6B6B6A69686662595C7032
:100E10008BA1ADB1A9988882807B726D68676D7B6C
:100E20008D9B9F9E998F888585837D767473767F51
:100E30008890939493918E8E8E8D8A8885858385F4
:100E400086868787878683807C77716F6C6A6B6AFA
:100E5000686866635D59657B93A3AEAFA291878294
:100E60007E77726C66676D7C8C959A9A948A85867B
:100E700087837E797573777F89919495928F8C8C17
:100E80008D8C8A8783807F828688898A8885827F05
:100E90007B77716D6B6968686A6967615B59687DAA
:100EA00093A0AAA89E918B88837C777169666A77E4
:100EB000838F969895929192918D88827A747477A7
:100EC0007D83888C8E8F91969A9A968E867E7B7C77
:100ED0007D7E7E7F7E7D7D7E7F7C7A75716E6D6D81
:100EE0006D6C6861595761728494A1A49F98939125
:100EF0008D88837C746C6B6F737A82898B8C8D8FF9
:100F0000929392918C877F7B7B797B7F8485888C81
:100F10008F9192908D8883817D7C7C7A79777879A6
:100F2000797A7C7E7D7C7B7B7A7976706B64616577
:100F30006D767E84888B8C8E91939391908A848039
:100F40007D7C7B7B7C7D7E808385888B8D8D8B8972
:100F5000878582808181818283868789898A898742
:100F600086858381807F7F7E7F7F7F7F7F7F81807B
:100F70007F7E7D7B7A7773706C6D6E70737375771F
:100F8000797C8184888B8E8F8F8E8C8A89888786E6
:100F9000858483848485858585838282818283821A
:100FA00081828282838384858686878787878787F5
:100FB0008583807E7D7C7B7B7B7B7A7A7A7B79796B
:100FC00077757270717171727475767A7D818387AD
:100FD000898A8A8B8C8C8D8D8B8C8C8B8A8A898864
:100FE00087878584838181808080808080808181E3
:100FF00082828383848586868585848484828280B8
:101000007E7D7B797878787878777676757777765D
:10101000777777787A7B7E818385888A8C8C8E90AF
:10102000908F8E8C8A89888787878786848483813E
:10103000828181808080808182838383858585868B
:101040008785858483828280807E7C7C7B7A7978A8
:101050007776757573747474767778797A7D808213
:101060008486878888888A8A8B8B8B8A89898A8AF2
:10107000898A88868482807F807F7F808080838544
:10108000868686868686858685848383828281811C
:101090007F7F7E7B797676757574747272717375E5
:1010A0007678797C7C7E80828485868788898A8B25
:1010B0008A8A8989888788888887878585858485BD
:1010C00084848384848384838482818181818181F7
:1010D00083828384848484838281807D7D7B7A780B
:1010E000787776757474737375757677787A7D8191
:1010F0008385878888898889898889888787898876
:1011000088878584838383838483828283838382A5
:1011100082828282818181818181818283828282B5
:10112000828280807F7D7D7B7A7978767675747215
:10113000727173747577797D7E83848584838486E8
:101140008687888888898889878685858585858436
:10115000838483828282838280818182828383826C
:10116000828283838282828180808180807F7F7E71
:101170007D7C7B7A79777573716F70717477797B09
:101180007E80828588878684858586878786858612
:10119000868786878687868584858383818181810A
:1011A0008182828587878787868583828280807F08
:1011B0007F7E7F7F8080807E7E7C7A7976736F6C85
:1011C000676463666D747A7D82878B909594908B4B
:1011D000888584807D7A7777797D7F818386898A07
:1011E0008B8A878583838281807F8184878B8B8BA9
:1011F000898A8A898783817E7C7C7B7A79787878F2
:10120000767673716F6C68635B58626F787C8187E8
:101210008E969E9F99908B8886827A73707174796E
:101220007D7E81878F949493918E8C88827E7A794B
:10123000797B7F85898E90929392918D8986827D2C
:101240007A76737273747373727272706D69655E9D
:10125000585866747C7E858F97A0A39D958E8B874A
:101260008178706B6E7274777B8189939A9895956B
:10127000949089827B77767878797C848C93959327
:101280009494938F88827B7876757270707375777B
:1012900077757473716C69635B58647379797E894F
:1012A000949C9F9993908E8B847B736F74767676E3
:1012B000787E878E91918F9195928C847F7D7D7CB5
:1012C0007977787C8183827F7E81817E7A7A7C7F48
:1012D0008283828182868683807E7F8385817F81EF
:1012E00082807E7B78767572727171717376797C8B
:1012F0007F8184898B8B8989898987858586878782
:1013000088898A898A8987878381807E7C7A7A79AD
:101310007B7D7E7E7F818283838382808180807FCC
:101320007F818283848686868686858382807D7A95
:1013300078767573737373757677797B7C7D7D7E34
:101340007F7F80818283848687888989898989884B
:101350008686848281807F7F7F7E7D7D7C7E7E808D
:101360007F7F7F7F8080807F808180817F7F7F8083
:101370008586817E80818081817F82827F80827F5D
:101380007F81827E7D7F807D7D7C7C7D7F7D7E7F79
:101390007F7F818181818387878585868586868613
:1013A00086868584848584848586878687878689E2
:1013B0008785858483817F7F7D7C7D7D7C7C7A7938
:1013C00078767473716D6968635E5E6B7A7D80890F
:1013D000979E9E9D9894918980797574727676789F
:1013E0007F888B8F929493918E8A837D7A7A7B7C8F
:1013F00080878D9497989996958F89837C77747060
:1014000070707171737473716F6B6861584C536F46
:101410007C767890A4A5A19F9B978F857A706E6E3D
:101420007173747F8A8F939A9F9C94908C847A7343
:101430006F7074777B828D969D9E9B97958F877F2B
:1014400079777778797C7E80817F7E79726B645D35
:10145000574D4344647F7F7D95B3B5ABA6A0978B72
:101460007E726463686B6E7484939899A1A59F964D
:101470008C847F776E696D767C81868F9B9F9D992A
:1014800096938C827974747677787C838684818055
:101490007D756D645F5A544D44486A8787839AB955
:1014A000B7A59B978E7E70635B60696D6F798D9B2E
:1014B0009B9AA0A19A8D817977736D68707C8386E1
:1014C0008D999F9C9A98918A837E757376787679A8
:1014D000808586827F7B757068605A595751494D67
:1014E000708E8B859DB9B49F9490867A6C625A6594
:1014F00070737580939E9B979A9A92867972747393
:101500006E6B76848B8C91999E9C96918D8B847D4D
:1015100078787D7F7E7E848A86807B78726C635C3F
:101520005A5B5A534B557E948B86A3BAAC958D89E2
:101530008074685F5E6D77777B8A9C9E989698959D
:101540008B7D737177746E6F7E8A8C8E939999966A
:10155000928B8786837C787D828382848989847E4E
:1015600078726C655D585858544C4F739491879DB0
:10157000B9B1988D887F756A605E6C7A7C7C8A9A36
:101580009E97919291887D76727879757682909007
:101590008E929899928C8A8988827E7E80818080C2
:1015A000838786817B77746F67605E5D5C56515080
:1015B0006C90928796B5B39B8E8C837A6F69646FBB
:1015C0007C7D7D869597908C8E8E877E78787E7FC9
:1015D0007979828D8D8A8F9799949293908D888452
:1015E000818283817F8385837C7975706C655F5B85
:1015F0005E59524B5C8292878DABB7A5948F8882DF
:10160000786E6A6E7D807D828E938F88888A887FCF
:1016100078767C807A77808A8E8A8A8E9494908E6F
:101620008E8F8C868282868682838687817B767384
:101630006D67605C5B5A564F4E6A8C8F8796B2AD71
:101640009A8E88827E746B6A78817E808893928C71
:1016500087898B867C77787F7C7675808A8C8B8E69
:10166000939898938D8B8D88817D818483828287E6
:1016700086827A75726D665D5957544B4B6A8A8CB7
:10168000899CB2AC9C9289827E736B6B787F7C7FE5
:10169000878F8F8C89898C88807B7C817F7878820A
:1016A0008888878A8F9394918D8C8C87807C7E80AC
:1016B0008081838584807A75726D665F5C5D585029
:1016C0004B5B7F8C878DA4AC9F938A84837B726EE7
:1016D000767F7E7D82888C8984838889817C7B7FEC
:1016E0007F78767A838A8A898B9497918A888B8887
:1016F000817E80828282838584817B746F6B655D4D
:101700005959554E4C6582878797A8A599938A8425
:10171000817A73737A7E7E7E83888A8887898B89B3
:10172000848080837F77777F838484898F9393906D
:101730008D8B8A847F7D7F838282868986807A7979
:10174000746E696461605C56505D7986848C9EA578
:101750009D958E8989817975787F7D7A7D84888849
:1017600086888C8D88828084847F7A7B8387858538
:101770008A91928F8B8A8985817E7F8383828384FD
:10178000837E7975716F6A6360605D5855657B858E
:10179000858E9BA09B938C8A88817B7A7C7E7E7EC3
:1017A0007D80858786878B8C89858384817C7A7D03
:1017B000818487898E92918E8B898784817F8081B5
:1017C00082818283827E7B7874716C686663615DDE
:1017D0005B62737E848B969C9B97928F8C87827EB4
:1017E0007D7E7E7F808284868788898C8A868383BB
:1017F000817E7C7C818587888C8E8F8D8A8886848B
:10180000817F7E80807F8080807E7A7773716D6932
:1018100064615F5E616A747C848B919393928F8D17
:101820008B87848180808080808184858687888A78
:101830008785848281808080838587888788888760
:10184000858280817F7E7D7F7F7E7E7E7B797773C0
:10185000706D6A68656363666C727880878C8D8F43
:101860008F8E8B8988868281818282828484868819
:10187000878787868585838180818283858688871F
:1018800087868582807F7E7C7C7C7D7D7D7D7D7B67
:101890007A787674706E6C6A69696C7074787D8120
:1018A00086898C8C8B8C8B888785848382838484C7
:1018B000858688898A8987868583828282818282D9
:1018C0008485858584858583817F807F7D7B7C7B06
:1018D0007C7B7B7B7A7876757371706F6E707273B8
:1018E00075787D80838587898A89888786858483C2
:1018F0008283848585868888888788878583848491
:10190000838383818384838382838381807F807FB9
:101910007E7D7C7C7C7B7B7A7A7978777576757432
:101920007474767778797C7E8082838586868685D6
:10193000848484838384858686868789888787864E
:10194000868684848485838382828382828384835F
:1019500082818080807E7D7C7D7D7C7C7C7B7A79B1
:101960007979787777777879797A7C7E7F818383C4
:101970008486858484838282828383848585868627
:101980008787878685848483838382818080808122
:10199000818283818080807F7E7E7E7D7C7C7B7C5B
:1019A0007C7C7B7B7C7B7B7A7A7A7B79797B7C7D88
:1019B0007F808182838483848483838382838383FF
:1019C0008484858585848484838282828280807FEA
:1019D0007E7E7F7E7E7F7F8080808180807F7F7E15
:1019E0007E7E7F7F7E7E7F7E7E7D7D7E7E7E7D7D18
:1019F0007D7D7E7E7F807F818182828281818181E7
:101A000081818181828181828282818181808282C1
:101A10008181817F7F807F807F80808181818180C3
:101A2000818181817F8081817F7F7F807F7E7F7EBA
:101A30007F7F7F7F7F7F7F7F7F80808080808080AF
:101A40008080808080808081808081807F80818094
:101A500080808081808080807F7F7F7E7F8080808B
:101A60007F81818180818180808080807F7F7F7F76
:101A7000807F7F7F7E7F7F7F7F7F7F7F7F7F7F7F76
:101A80007F80808180808080808180808080808055
:101A9000817F828280808182818180817F7F7F7F40
:101AA0007F7E7F7F80808181818181828181808032
:101AB000807F7F8080808080818181808080808025
:101AC0008180807F7F80808080807F808080818017
:101AD0008080808180808081818180808180807F02
:101AE0007F7F7E7E7E7F7F7F7F807F808080818002
:101AF00082828181818181818180808180818080D9
:101B00007F7F808080807F8080807F7F7F7F7E80DE
:101B10007F7F80807F7F80808080808281808181C4
:101B200080807F7F7F7F7F7E7F7F807F80808080BF
:101B3000808181818181818181818180818080809A
:101B4000808180808080807F8080807F807F7F7F99
:101B50007F80807F8181818082808180818180827D
:101B6000818080818181818080807F807F7F808073
:101B7000807F808080808181818282828281818158
:101B8000828180808081818180808080808080804F
:101B9000807F80807F808080808081818180818043
:101BA00081818181818181828181807F7F7F7E7F30
:101BB0007F7F7F7F7F7F7F7F7F7F7F7F8180808030
:101BC000818080807F7F7F808080807F7F7F7E7E1E
:101BD0007F7E7E7F7F7E7D7E7E7E7E7F7F807F7F1D
:101BE000807F7F7F7F7F808080807F8080807F7EFE
:101BF0007E7E7E7D7E7D7D7E7E7F7E7F7F7F7F8001
:101C000081818180818080818080808081808081CD
:101C1000808080817F807F807F80808080818080C5
:101C2000808180818182818282818282828283839B
:101C30008282828181818181818181818181818191
:101C4000818182818282818282818181828181817E
:101C5000817F80808080807E7F7E7E7D7D7D7D7D9A
:101C60007D7D7D7D7D7D7D7C7C7C7D7D7D7D7E7EA5
:101C70007E7E7D7E7D7D7D7C7C7D7C7D7C7E7E7E92
:101C80007E7E7D7F7E7E7D7E7F7F7F7F7F7F7F7F6D
:101C90007F7E7F7E7F7F7E7F7E7E7F7F7E7E7F7F5B
:101CA0007E7F7F7E807F7F80808081818182828332
:101CB00083838484848485848484848484838383E8
:101CC00082828383828382838282828282828282F0
:101CD00082828282818180818181808080807F7FF9
:101CE00080807F7F7E7F808080807F7F80807F7FFD
:101CF00080808080808081818081808080807F7FE3
:101D00007F7F7F7F7F7F808080807F8080808081D9
:101D100080808081808181808080808080818081BE
:101D200081818080818081818181818181818181A6
:101D3000818081818282828283828281838281808A
:101D4000817F7F807F7F7E7F7F7F7F80807E7F7FA0
:101D50007F807F7F80818080808080808180808183
:101D60008081818181818181808080818181818167
:101D7000818181818281818182828281828282824B
:101D8000828282828181808080807F7F7F7F7F7F4F
:101D90007F7F7F807F7F80808081808080807F8048
:101DA000807F80808080817F8080807F7F7F807F38
:101DB0007F7F7F7F80808080808080808081818025
:101DC0008081808181808180807F80808080808010
:101DD0007F7F807F7F807F807F8080818181818104
:101DE00081818182828181818181818081818181E2
:101DF0008180808080808080808080808080807FE3
:101E00008181808080807F808180808080807F7FD2
:101E10007F7E7F7E7E7F7E7E7E7E7F7E7E7E7E7EDE
:101E20007E7E7F7F7E7F7F7F807F7F80807F807FC1
:101E3000807F7F807F7F808080807F7F807F8080A9
:101E40008080807F80808080808080808081808092
:101E50008081808080808080808180808080808080
:101E60008081808181818181818081818181818165
:101E7000808181818180808181808080808080815B
:101E8000818080808180808081818180808180814B
:101E9000808081808080807F807F7F808080808044
:101EA0007F807F8080807F80807F807F807F7F8039
:101EB0007F7F7F8080807F7F807F7F7E7F7F7F7F2F
:101EC0007F7F7F7F807F80807F807F80807F80801A
:101ED0008080818080808080808180808080808000
:101EE00081818180828180818180828181818282E1
:101EF00082828181828282828281818281828182C8
:101F000081818281828281828282828182828382B5
:101F100082818282828281828281818181808081AC
:101F20008180807F817F807F7F7F7F7F7F7E7E7FBC
:101F30007F7E7F7D7E7E7E7D7D7D7D7C7D7D7C7DCB
:101F40007C7D7C7C7C7C7C7D7C7C7C7D7C7C7C7DCD
:101F50007D7D7D7E7E7F7F7E7F807F7F7F80807F97
:101F6000807F808181818080818181818181818167
:101F7000818182828281818181818281818180814E
:101F80008181808080808081807F7F8080807F8051
:101F90007F8080808080808080818180818181813C
:101FA0008182818182828182828282818282828216
:101FB0008281818182818181818081808181808013
:101FC00080807F8080807F7F807F807F7F7F807F19
:101FD0007F7E7E7F7F807F7F807F7F7F7F7F7F8010
:101FE0007F7F8081808081818180818181818181E9
:101FF00081808181818181818080818180808181D6
:1020000081808281818281808081818080808180C5
:1020100080808180808081808080808080808081BD
:102020008081808080808080808080807F7F7F80B2
:102030007F7E807F7F7E7F7E7F7F7E7E7F7D7E7EB8
:102040007F7F7E7F7F7F7E7F7F7F7F807F7F7F7FA1
:1020500080807F80808080808080818080807F8081
:102060008081818180808180808181818181818165
:102070008181818180818181818181818081808054
:102080008080807F80808080807F7F807F807F8055
:102090007F7F807F7F7F7F7F7F7F7F7F807F80804C
:1020A0008080807F80808080808080808080808031
:1020B0008080817F80808080808080807F80808021
:1020C0008080808081808180818181808080818109
:1020D00081828181808080818180818081808080F7
:1020E00080807F808080807F808180807F80807FF3
:1020F0007F807F7F7F7F7E7E7E7E7F7E7F7F7E7FF5
:102100007E7E7E7E7E7D7E7E7E7E7E7F7E7F7F7FEC
:102110007E7F7E7E7F7F807F808080807F818180C8
:10212000807F8180808080808081808081808181AB
:102130008080818081828181818182818180818191
:102140008282818282818181828182818181818179
:1021500081808080808181808081807F7F807F7F7F
:102160007F7F80807F7F807F7F7F807F7F7F7F7F7B
:102170007E7F7F7E80807F8080807F7F80807F8069
:102180007F80807F7F808080807F7F807F7F808056
:102190008080807F80807F7F808080808080808042
:1021A0008180818081818081808080818180807F29
:1021B0008081808081808080808180818181808019
:1021C0008181808180818180808181818080818105
:1021D00081818080818080808180818180808080F9
:1021E00081818180808081808180818180808180E7
:1021F00080808080807F7F7F807E7F7F7E7E7E7EEE
:102200007F7F7E7F7E7E7E7E7E7F7F7E7E7F7F7FE6
:10221000807F7F80808080808080808080808081BF
:10222000818181818181818181818181818181819E
:102230008080807F807F807F7E7E7E7F7F7E7E7FAE
:102240007E7F7E7F7E7E7E7E7E7E7E7F7F7F7E7EA9
:102250007F7F7F7F7F7F7F7F7F7F7F7F7F807F7F8D
:102260007F8080807F80808180808080818180826B
:102270008181828282818281818282828181818246
:102280008281818181818181828181808080808041
:10229000808180807F7F808080807F80817F808040
:1022A00080807F7F808081807F808080808180802F
:1022B000808080808080807F80808081808080801E
:1022C000818080807F818180818181808180808107
:1022D00081818181818180818181818181818180F0
:1022E000818181808080808080807F7F7F7F7F7FF1
:1022F0007F7E7F7F7F7E7F7F7E7E7F7E7F7E7E7EF6
:102300007E7E7E7F7E7E7F7E7E7F7E7F7E7F7F7EE7
:102310007E7F7F7F7F7F7F80807F7F807F80807FC9
:1023200080818080808181818181818081808080A5
:10233000818180818181828181808181818281818D
:10234000818182818181828181818181818180807D
:102350008181818181818081818081807F807F8076
:102360007F8080807F7F7F8080807F7F807E7E7F78
:102370007F7F7F807E7F7F7F7F7E7F7F7F80807F6C
:10238000807F7F7F80807F807F80807F8081808151
:102390008080808080807F8080818180808080803C
:1023A0008080818080818080808080807F8080812B
:1023B00080807F807F7F7F8080807F7F7F80808024
:1023C0007F80808080807F7F7F8080807F80808012
:1023D00080818080808080818081808081808181F7
:1023E00081818182828282818282838282818282D1
:1023F00082828281828182818182828182818281C4
:1024000080818181818180818180808080807F80C6
:1024100080808080807F80818080808180808181B9
:102420008181818181818181828182828182818198
:1024300081818182818181818180818180807F7F92
:10244000807F7E7F7E7F7E7D7E7E7D7D7D7D7C7DAF
:102450007D7D7D7D7C7C7D7D7D7C7C7D7D7D7E7DAF
:102460007E7E7F7E7E7F7F7F7F807F808080808179
:102470008080808081818181818181818181808052
:10248000818180828182818182828181818181803A
:102490008181808180808181808180818181808132
:1024A0008081818180808280818081818180808023
:1024B00080808181808180818080808180807F7F19
:1024C00080808080807F8080807F807F7F807F8011
:1024D0007F7F80807F7F7F7F7E7F807F7F7F808008
:1024E0007E7F807F807F807F807F808080808080F3
:1024F00080818080818180818080818081818180D4
:1025000080818181818181818181818281828182B9
:1025100081808180818180818181818180808080B2
:102520007F7F7F7F807F80807F7E7E7E7E7E7F7EBE
:102530007E7F7E7E7E7E7E7D7D7D7E7E7E7D7E7EBE
:102540007E7D7E7E7E7E7E7E7E7E7E7F7F7F7F7FA7
:10255000807F808080808081808081808080808278
:102560008182818181818182818282818281828254
:10257000818181818281818281818180818181814A
:1025800080808181818080808080807F8080807F4A
:10259000808080808080808080808080808080803B
:1025A0008080808080807F8081808080808080802B
:1025B0008181808081818181808081808180818111
:1025C0008181818081808080818180808081808004
:1025D00081808181808080808080808080807F7FFA
:1025E00080807F7F807F807F7F807F7F7F818080F2
:1025F00080817F80808081808080808080818181D7
:1026000080808180818081808081808080807F80C7
:10261000817F7F7F807F7F807F7F7F807F7F7F7FC5
:10262000807F7F7F8080807F807F808080808080AF
:102630008180808080818081808081818080818193
:10264000818181818181818180818180818181817C
:10265000818181818181808181808081807F808171
:1026600080807F7F807F808080807F7F807F7F7F72
:10267000807F7F7F7F7F7E7F7F7F7F7F7E7E7F7F6C
:102680007F7F7F7F7F7F7F7F807F80807F80808054
:102690008080818180808081818180818081818032
:1026A0008080818081818181818181808181808020
:1026B00081818180807F8081808080808081807F17
:1026C0008080807F808081808080808080807F7F0C
:1026D000807F7F80808081807F80808080808080FC
:1026E00080807F808080808080807F80807F8080ED
:1026F000807F7F808080808180808080807F7F80DD
:1027000080808080808080807F817F7F80807F80CC
:102710008080818081807F808080808080807F80B9
:1027200080807F808081808080818081817F807FA8
:10273000807F80817F807F81807F80808180818099
:10274000807F8180808080808080808080807F808A
:102750008080807F7F80807F80808080818080807B
:102760008081808080808080808080807F80818068
:102770008080808080808080000011241FBECFEF89
:10278000D8E0DEBFCDBF21E0A0E0B1E001C01D92E6
:10279000A430B207E1F70E940C140C942E140C9490
:1027A00000001F920F920FB60F9211248F939F93E8
:1027B000AF93BF93EF93FF93E0910001F09101017C
:1027C000E859FF4FE491E11108C010920001109206
:1027D00001011092020110920301E7BD80910001F6
:1027E00090910101A0910201B09103010196A11DF8
:1027F000B11D8093000190930101A0930201B09359
:102800000301FF91EF91BF91AF919F918F910F9035
:102810000FBE0F901F901895809181008860809363
:1028200081008091810081608093810010928500F9
:10283000109284008CED95E090938900809388003D
:1028400080916F00826080936F00789484B5836874
:1028500084BD85B5816085BD569AFFCFF894FFCFC2
:107E0000112484B714BE81FFF0D085E080938100F7
:107E100082E08093C00088E18093C10086E0809377
:107E2000C20080E18093C4008EE0C9D0259A86E02C
:107E300020E33CEF91E0309385002093840096BBD3
:107E4000B09BFECF1D9AA8958150A9F7CC24DD24C4
:107E500088248394B5E0AB2EA1E19A2EF3E0BF2EE7
:107E6000A2D0813461F49FD0082FAFD0023811F036
:107E7000013811F484E001C083E08DD089C08234E0
:107E800011F484E103C0853419F485E0A6D080C0E4
:107E9000853579F488D0E82EFF2485D0082F10E0AE
:107EA000102F00270E291F29000F111F8ED06801E7
:107EB0006FC0863521F484E090D080E0DECF843638
:107EC00009F040C070D06FD0082F6DD080E0C81688
:107ED00080E7D80618F4F601B7BEE895C0E0D1E017
:107EE00062D089930C17E1F7F0E0CF16F0E7DF06D8
:107EF00018F0F601B7BEE89568D007B600FCFDCFD4
:107F0000A601A0E0B1E02C9130E011968C91119780
:107F100090E0982F8827822B932B1296FA010C0160
:107F200087BEE89511244E5F5F4FF1E0A038BF0790
:107F300051F7F601A7BEE89507B600FCFDCF97BE46
:107F4000E89526C08437B1F42ED02DD0F82E2BD052
:107F50003CD0F601EF2C8F010F5F1F4F84911BD097
:107F6000EA94F801C1F70894C11CD11CFA94CF0C13
:107F7000D11C0EC0853739F428D08EE10CD085E9AC
:107F80000AD08FE07ACF813511F488E018D01DD067
:107F900080E101D065CF982F8091C00085FFFCCF94
:107FA0009093C60008958091C00087FFFCCF809118
:107FB000C00084FD01C0A8958091C6000895E0E648
:107FC000F0E098E1908380830895EDDF803219F02E
:107FD00088E0F5DFFFCF84E1DECF1F93182FE3DFCA
:107FE0001150E9F7F2DF1F91089580E0E8DFEE27F6
:047FF000FF270994CA
:027FFE00040479
:0400000300007E007B
:00000001FF