:100000000C9434000C9451000C9451000C94510049
:100010000C9451000C9451000C9451000C9451001C
:100020000C9451000C9451000C9451000C9451000C
:100030000C9451000C9451000C9451000C945100FC
:100040000C9451000C9451000C9451000C945100EC
:100050000C9451000C9451000C9451000C945100DC
:100060000C9451000C94510011241FBECFEFD8E026
:10007000DEBFCDBF21E0AAE0B1E001C01D92AE31EC
:10008000B207E1F711E0A0E0B1E0E6E9F7E002C075
:1000900005900D92AA30B107D9F70E9464000C9424
:1000A000C9030C9400009091C00095FFFCCF809391
:1000B000C60080E090E008958091C00087FFFCCFEB
:1000C0008091C60090E00895569A239A2B9A8091C9
:1000D0007C00806C80937C0080917A0083608093A8
:1000E0007A0080917A00806880937A0087E690E0B9
:1000F0009093C5008093C4001092C00088E1809363
:10010000C10086E08093C2008AE091E023E530E000
:1001100030931301209312012CE530E03093150148
:100120002093140123E020930D01109217011092E7
:10013000160190931D0180931C0190931B018093E5
:100140001A019093190180931801C0E08AE0C82E2B
:10015000D12C90E0E92E91E0F92E1BB88FE99FE0B9
:100160000197F1F700C0000080917A0080648093CD
:100170007A0080917A0086FDFCCF80917800909182
:100180007900845F9140B6010E94EA008B011F93C1
:100190006F93FF92EF920E94FE000F900F900F90CE
:1001A0000F900E31110538F00132110510F015B81D
:1001B00006C0C11104C05E9A2B9AC0E001C0C1E024
:1001C0009FEF29E688E1915020408040E1F700C090
:1001D0000000C3CFAA1BBB1B51E107C0AA1FBB1F56
:1001E000A617B70710F0A61BB70B881F991F5A95C3
:1001F000A9F780959095BC01CD010895A0E0B0E0ED
:10020000E4E0F1E00C94A203AE014B5F5F4FFA0112
:1002100061917191AF0180911A0190911B010E942F
:100220001401E2E00C94BE03ACE0B0E0EAE1F1E0DE
:100230000C9492037C016B018A01FC0117821682E7
:10024000838181FFBDC1CE0101964C01F7019381ED
:10025000F60193FD859193FF81916F01882309F445
:10026000ABC1853239F493FD859193FF81916F0184
:10027000853229F4B70190E00E94FC02E7CF512CAF
:10028000312C20E02032A0F48B3269F030F480323F
:1002900059F0833269F420612CC08D3239F08033FB
:1002A00039F4216026C02260246023C0286021C068
:1002B00027FD27C030ED380F3A3078F426FF06C00E
:1002C000FAE05F9E300D1124532E13C08AE0389E51
:1002D000300D1124332E20620CC08E3221F426FD05
:1002E0006BC1206406C08C3611F4206802C08836C9
:1002F00041F4F60193FD859193FF81916F01811186
:10030000C1CF982F9F7D9554933028F40C5F1F4FD9
:10031000FFE3F9830DC0833631F0833771F0833505
:1003200009F05BC022C0F801808189830E5F1F4FF6
:1003300044244394512C540115C03801F2E06F0E4F
:10034000711CF801A080B18026FF03C0652D70E00C
:1003500002C06FEF7FEFC5012C870E94F1022C01D4
:1003600083012C852F77222E17C03801F2E06F0E03
:10037000711CF801A080B18026FF03C0652D70E0DC
:1003800002C06FEF7FEFC5012C870E94E6022C01AF
:100390002C852068222E830123FC1BC0832D90E036
:1003A00048165906B0F4B70180E290E00E94FC02C2
:1003B0003A94F4CFF50127FC859127FE81915F01E6
:1003C000B70190E00E94FC0231103A94F1E04F1A1C
:1003D00051084114510471F7E5C0843611F0893693
:1003E00039F5F80127FF07C060817181828193810F
:1003F0000C5F1F4F08C060817181072E000C880BB5
:10040000990B0E5F1F4F2F76722E97FF09C09095A4
:100410008095709561957F4F8F4F9F4F2068722E0A
:100420002AE030E0A4010E943403A82EA81844C09A
:10043000853729F42F7EB22E2AE030E025C0F22F36
:10044000F97FBF2E8F36C1F018F4883579F0B4C02B
:10045000803719F0883721F0AFC02F2F2061B22EDE
:10046000B4FE0DC08B2D8460B82E09C024FF0AC0D5
:100470009F2F9660B92E06C028E030E005C020E12D
:1004800030E002C020E132E0F801B7FE07C0608131
:100490007181828193810C5F1F4F06C060817181E1
:1004A00080E090E00E5F1F4FA4010E943403A82E4D
:1004B000A818FB2DFF777F2E76FE0BC0372D3E7FD1
:1004C000A51450F474FE0AC072FC08C0372D3E7E9D
:1004D00005C0BA2C372D03C0BA2C01C0B52C34FF8F
:1004E0000DC0FE01EA0DF11D8081803311F4397ECB
:1004F00009C032FF06C0B394B39404C0832F86783A
:1005000009F0B39433FD13C030FF06C05A2CB31466
:1005100018F4530C5B18B32CB31468F4B70180E2E1
:1005200090E03C870E94FC02B3943C85F5CFB31465
:1005300010F43B1801C0312C34FF12C0B70180E326
:1005400090E03C870E94FC023C8532FF17C031FDE1
:1005500003C088E790E002C088E590E0B7010CC0D6
:10056000832F867859F031FF02C08BE201C080E210
:1005700037FD8DE2B70190E00E94FC02A51438F42B
:10058000B70180E390E00E94FC025A94F7CFAA944E
:10059000F401EA0DF11D8081B70190E00E94FC0298
:1005A000A110F5CF332009F451CEB70180E290E0DD
:1005B0000E94FC023A94F6CFF7018681978102C02F
:1005C0008FEF9FEF2C96E2E10C94AE03FC010590B7
:1005D000615070400110D8F7809590958E0F9F1F45
:1005E0000895FC016150704001900110D8F780958A
:1005F00090958E0F9F1F08950F931F93CF93DF93B6
:10060000FB01238121FD03C08FEF9FEF28C022FF54
:1006100016C046815781248135814217530744F41F
:10062000A081B1819D012F5F3F4F318320838C9347
:10063000268137812F5F3F4F3783268310C0EB0120
:10064000092F182F0084F185E02D0995892BE1F6FB
:100650008E819F8101969F838E83812F902FDF91C2
:10066000CF911F910F910895FA01AA27283051F1D7
:10067000203181F1E8946F936E7F6E5F7F4F8F4FD3
:100680009F4FAF4FB1E03ED0B4E03CD0670F781F32
:10069000891F9A1FA11D680F791F8A1F911DA11D17
:1006A0006A0F711D811D911DA11D20D009F4689450
:1006B0003F912AE0269F11243019305D3193DEF6F8
:1006C000CF010895462F4770405D4193B3E00FD0AE
:1006D000C9F7F6CF462F4F70405D4A3318F0495D99
:1006E00031FD4052419302D0A9F7EACFB4E0A6957C
:1006F0009795879577956795BA95C9F7009761059E
:10070000710508959B01AC010A2E069457954795F3
:1007100037952795BA95C9F7620F731F841F951FE8
:10072000A01D08952F923F924F925F926F927F92F9
:100730008F929F92AF92BF92CF92DF92EF92FF92F1
:100740000F931F93CF93DF93CDB7DEB7CA1BDB0B9D
:100750000FB6F894DEBF0FBECDBF09942A88398842
:1007600048885F846E847D848C849B84AA84B98449
:10077000C884DF80EE80FD800C811B81AA81B98155
:10078000CE0FD11D0FB6F894DEBF0FBECDBFED0169
:060790000895F894FFCF6C
:0A07960074656D703A2025690A00B1
:00000001FF
