:100000000C9434000C9451000C9451000C94510049
:100010000C9451000C9451000C9451000C9451001C
:100020000C9451000C9451000C9451000C9451000C
:100030000C9451000C9451000C9451000C945100FC
:100040000C9451000C9451000C9451000C945100EC
:100050000C9451000C9451000C9451000C945100DC
:100060000C9451000C94510011241FBECFEFD8E026
:10007000DEBFCDBF21E0AAE0B1E001C01D92AE31EC
:10008000B207E1F711E0A0E0B1E0E0E8FBE002C078
:1000900005900D92AA30B107D9F70E9464000C9424
:1000A000BE050C9400009091C00095FFFCCF80939A
:1000B000C60080E090E008958091C00087FFFCCFEB
:1000C0008091C60090E0089580917C00806C8093C0
:1000D0007C0080917A00836080937A0080917A001E
:1000E000806880937A0087E690E09093C5008093C3
:1000F000C4001092C00088E18093C10086E0809324
:10010000C2008AE091E023E530E0309313012093B0
:1001100012012CE530E0309315012093140123E007
:1001200020930D01109217011092160190931D015A
:1001300080931C0190931B0180931A0190931901E5
:1001400080931801C0E0D1E080917A0080648093B0
:100150007A0080917A0086FDFCCF609178007091E2
:10016000790080E090E00E94F80120E030E040EA71
:1001700050E40E94860220E030EC4FE754E40E94F5
:10018000500120E030E040E05FE30E94E3002AE01D
:1001900037ED43E25CE30E9450010E94C2017F936D
:1001A0006F93DF93CF930E94F3029FEF23ED80E3E1
:1001B000915020408040E1F700C000000F900F9068
:1001C0000F900F90C1CF5058BB27AA270E94FB0069
:1001D0000C944C020E943E0238F00E94450220F02E
:1001E00039F49F3F19F426F40C943B020EF4E09589
:1001F000E7FB0C943502E92F0E945D0258F3BA1711
:10020000620773078407950720F079F4A6F50C942C
:100210007F020EF4E0950B2EBA2FA02D0B01B90131
:1002200090010C01CA01A0011124FF27591B99F06C
:10023000593F50F4503E68F11A16F040A22F232F78
:10024000342F4427585FF3CF469537952795A795C8
:10025000F0405395C9F77EF41F16BA0B620B730B6F
:10026000840BBAF09150A1F0FF0FBB1F661F771FE0
:10027000881FC2F70EC0BA0F621F731F841F48F495
:10028000879577956795B795F7959E3F08F0B0CF1E
:100290009395880F08F09927EE0F97958795089505
:1002A0000E9464010C944C020E94450258F00E9486
:1002B0003E0240F029F45F3F29F00C9435025111C1
:1002C0000C9480020C943B020E945D0268F3992317
:1002D000B1F3552391F3951B550BBB27AA27621742
:1002E0007307840738F09F5F5F4F220F331F441F4F
:1002F000AA1FA9F335D00E2E3AF0E0E832D0915083
:100300005040E695001CCAF72BD0FE2F29D0660F6F
:10031000771F881FBB1F261737074807AB07B0E8B2
:1003200009F0BB0B802DBF01FF2793585F4F3AF0B8
:100330009E3F510578F00C9435020C9480025F3F8B
:10034000E4F3983ED4F3869577956795B795F7953E
:100350009F5FC9F7880F911D9695879597F9089526
:10036000E1E0660F771F881FBB1F621773078407C2
:10037000BA0720F0621B730B840BBA0BEE1F88F7D1
:10038000E09508950E94C9016894B1110C9480020F
:1003900008950E94650288F09F5798F0B92F992719
:1003A000B751B0F0E1F0660F771F881F991F1AF060
:1003B000BA95C9F714C0B13091F00E947F02B1E044
:1003C00008950C947F02672F782F8827B85F39F043
:1003D000B93FCCF3869577956795B395D9F73EF4F9
:1003E00090958095709561957F4F8F4F9F4F0895A1
:1003F000E89409C097FB3EF49095809570956195BF
:100400007F4F8F4F9F4F9923A9F0F92F96E9BB2774
:100410009395F695879577956795B795F111F8CFF0
:10042000FAF4BB0F11F460FF1BC06F5F7F4F8F4F5B
:100430009F4F16C0882311F096E911C0772321F051
:100440009EE8872F762F05C0662371F096E8862FE9
:1004500070E060E02AF09A95660F771F881FDAF740
:10046000880F9695879597F9089597F99F6780E883
:1004700070E060E008959FEF80EC089500240A94F6
:100480001616170618060906089500240A9412166F
:100490001306140605060895092E0394000C11F4A2
:1004A000882352F0BB0F40F4BF2B11F460FF04C04F
:1004B0006F5F7F4F8F4F9F4F089557FD9058440FA8
:1004C000551F59F05F3F71F04795880F97FB991FB3
:1004D00061F09F3F79F08795089512161306140670
:1004E000551FF2CF4695F1DF08C0161617061806FD
:1004F000991FF1CF86957105610508940895E894D8
:10050000BB2766277727CB0197F908950E949902A8
:100510000C944C020E943E0238F00E94450220F0EA
:10052000952311F00C9435020C943B0211240C9489
:1005300080020E945D0270F3959FC1F3950F50E019
:10054000551F629FF001729FBB27F00DB11D639F85
:10055000AA27F00DB11DAA1F649F6627B00DA11D2B
:10056000661F829F2227B00DA11D621F739FB00DD1
:10057000A11D621F839FA00D611D221F749F332741
:10058000A00D611D231F849F600D211D822F762FDA
:100590006A2F11249F5750409AF0F1F088234AF0B7
:1005A000EE0FFF1FBB1F661F771F881F9150504023
:1005B000A9F79E3F510580F00C9435020C948002FF
:1005C0005F3FE4F3983ED4F3869577956795B795AA
:1005D000F795E7959F5FC1F7FE2B880F911D9695C4
:1005E000879597F90895A0E0B0E0E9EFF2E00C9468
:1005F0009705AE014B5F5F4FFA0161917191AF01B9
:1006000080911A0190911B010E940903E2E00C9471
:10061000B305ACE0B0E0EFE0F3E00C9487057C01BB
:100620006B018A01FC0117821682838181FFBDC1A3
:10063000CE0101964C01F7019381F60193FD85915E
:1006400093FF81916F01882309F4ABC1853239F49E
:1006500093FD859193FF81916F01853229F4B70154
:1006600090E00E94F104E7CF512C312C20E02032A1
:10067000A0F48B3269F030F4803259F0833269F49F
:1006800020612CC08D3239F0803339F4216026C0CE
:100690002260246023C0286021C027FD27C030EDE0
:1006A000380F3A3078F426FF06C0FAE05F9E300D2E
:1006B0001124532E13C08AE0389E300D1124332E9E
:1006C00020620CC08E3221F426FD6BC1206406C06E
:1006D0008C3611F4206802C0883641F4F60193FD8F
:1006E000859193FF81916F018111C1CF982F9F7DDB
:1006F0009554933028F40C5F1F4FFFE3F9830DC02E
:10070000833631F0833771F0833509F05BC022C046
:10071000F801808189830E5F1F4F44244394512C3C
:10072000540115C03801F2E06F0E711CF801A08071
:10073000B18026FF03C0652D70E002C06FEF7FEF30
:10074000C5012C870E94E6042C0183012C852F779C
:10075000222E17C03801F2E06F0E711CF801A08044
:10076000B18026FF03C0652D70E002C06FEF7FEF00
:10077000C5012C870E94DB042C012C852068222EC9
:10078000830123FC1BC0832D90E048165906B0F46A
:10079000B70180E290E00E94F1043A94F4CFF501B1
:1007A00027FC859127FE81915F01B70190E00E94AF
:1007B000F10431103A94F1E04F1A510841145104F8
:1007C00071F7E5C0843611F0893639F5F80127FF55
:1007D00007C060817181828193810C5F1F4F08C0C7
:1007E00060817181072E000C880B990B0E5F1F4FE3
:1007F0002F76722E97FF09C0909580957095619520
:100800007F4F8F4F9F4F2068722E2AE030E0A40167
:100810000E942905A82EA81844C0853729F42F7EE8
:10082000B22E2AE030E025C0F22FF97FBF2E8F369E
:10083000C1F018F4883579F0B4C0803719F08837E2
:1008400021F0AFC02F2F2061B22EB4FE0DC08B2D32
:100850008460B82E09C024FF0AC09F2F9660B92E6D
:1008600006C028E030E005C020E130E002C020E111
:1008700032E0F801B7FE07C0608171818281938107
:100880000C5F1F4F06C06081718180E090E00E5FB9
:100890001F4FA4010E942905A82EA818FB2DFF7741
:1008A0007F2E76FE0BC0372D3E7FA51450F474FECC
:1008B0000AC072FC08C0372D3E7E05C0BA2C372D09
:1008C00003C0BA2C01C0B52C34FF0DC0FE01EA0DE7
:1008D000F11D8081803311F4397E09C032FF06C0DA
:1008E000B394B39404C0832F867809F0B39433FD96
:1008F00013C030FF06C05A2CB31418F4530C5B1805
:10090000B32CB31468F4B70180E290E03C870E94F6
:10091000F104B3943C85F5CFB31410F43B1801C037
:10092000312C34FF12C0B70180E390E03C870E9475
:10093000F1043C8532FF17C031FD03C088E790E029
:1009400002C088E590E0B7010CC0832F867859F08B
:1009500031FF02C08BE201C080E237FD8DE2B701BA
:1009600090E00E94F104A51438F4B70180E390E010
:100970000E94F1045A94F7CFAA94F401EA0DF11DF4
:100980008081B70190E00E94F104A110F5CF3320DF
:1009900009F451CEB70180E290E00E94F1043A944C
:1009A000F6CFF7018681978102C08FEF9FEF2C96DB
:1009B000E2E10C94A305FC01059061507040011028
:1009C000D8F7809590958E0F9F1F0895FC01615078
:1009D000704001900110D8F7809590958E0F9F1F61
:1009E00008950F931F93CF93DF93FB01238121FD84
:1009F00003C08FEF9FEF28C022FF16C046815781AA
:100A0000248135814217530744F4A081B1819D01AF
:100A10002F5F3F4F318320838C93268137812F5F57
:100A20003F4F3783268310C0EB01092F182F008416
:100A3000F185E02D0995892BE1F68E819F81019644
:100A40009F838E83812F902FDF91CF911F910F91E4
:100A50000895FA01AA27283051F1203181F1E89454
:100A60006F936E7F6E5F7F4F8F4F9F4FAF4FB1E0A1
:100A70003ED0B4E03CD0670F781F891F9A1FA11D9C
:100A8000680F791F8A1F911DA11D6A0F711D811D9D
:100A9000911DA11D20D009F468943F912AE0269F62
:100AA00011243019305D3193DEF6CF010895462FC1
:100AB0004770405D4193B3E00FD0C9F7F6CF462FA2
:100AC0004F70405D4A3318F0495D31FD405241930B
:100AD00002D0A9F7EACFB4E0A695979587957795C8
:100AE0006795BA95C9F700976105710508959B014F
:100AF000AC010A2E06945795479537952795BA95D8
:100B0000C9F7620F731F841F951FA01D08952F92B0
:100B10003F924F925F926F927F928F929F92AF928D
:100B2000BF92CF92DF92EF92FF920F931F93CF93DA
:100B3000DF93CDB7DEB7CA1BDB0B0FB6F894DEBF71
:100B40000FBECDBF09942A88398848885F846E8497
:100B50007D848C849B84AA84B984C884DF80EE80E1
:100B6000FD800C811B81AA81B981CE0FD11D0FB6EA
:100B7000F894DEBF0FBECDBFED010895F894FFCF0E
:0A0B800074656D703A2025690A00C3
:107E0000112484B714BE81FFF0D085E080938100F7
:107E100082E08093C00088E18093C10086E0809377
:107E2000C20080E18093C4008EE0C9D0259A86E02C
:107E300020E33CEF91E0309385002093840096BBD3
:107E4000B09BFECF1D9AA8958150A9F7CC24DD24C4
:107E500088248394B5E0AB2EA1E19A2EF3E0BF2EE7
:107E6000A2D0813461F49FD0082FAFD0023811F036
:107E7000013811F484E001C083E08DD089C08234E0
:107E800011F484E103C0853419F485E0A6D080C0E4
:107E9000853579F488D0E82EFF2485D0082F10E0AE
:107EA000102F00270E291F29000F111F8ED06801E7
:107EB0006FC0863521F484E090D080E0DECF843638
:107EC00009F040C070D06FD0082F6DD080E0C81688
:107ED00080E7D80618F4F601B7BEE895C0E0D1E017
:107EE00062D089930C17E1F7F0E0CF16F0E7DF06D8
:107EF00018F0F601B7BEE89568D007B600FCFDCFD4
:107F0000A601A0E0B1E02C9130E011968C91119780
:107F100090E0982F8827822B932B1296FA010C0160
:107F200087BEE89511244E5F5F4FF1E0A038BF0790
:107F300051F7F601A7BEE89507B600FCFDCF97BE46
:107F4000E89526C08437B1F42ED02DD0F82E2BD052
:107F50003CD0F601EF2C8F010F5F1F4F84911BD097
:107F6000EA94F801C1F70894C11CD11CFA94CF0C13
:107F7000D11C0EC0853739F428D08EE10CD085E9AC
:107F80000AD08FE07ACF813511F488E018D01DD067
:107F900080E101D065CF982F8091C00085FFFCCF94
:107FA0009093C60008958091C00087FFFCCF809118
:107FB000C00084FD01C0A8958091C6000895E0E648
:107FC000F0E098E1908380830895EDDF803219F02E
:107FD00088E0F5DFFFCF84E1DECF1F93182FE3DFCA
:107FE0001150E9F7F2DF1F91089580E0E8DFEE27F6
:047FF000FF270994CA
:027FFE00040479
:0400000300007E007B
:00000001FF