:100000000C9434000C9446000C9446000C9446006A
:100010000C9446000C9446000C9446000C94460048
:100020000C9446000C9446000C9446000C94460038
:100030000C9446000C9446000C9446000C94460028
:100040000C9446000C9446000C9448000C94460016
:100050000C9446000C9446000C9446000C94460008
:100060000C9446000C94460011241FBECFEFD8E03C
:10007000DEBFCDBF21E0A0E0B1E001C01D92A13004
:10008000B207E1F70E9460000C9484000C94000019
:100090001F920F920FB60F9211248F93EF93FF933D
:1000A000E6ECF0E080818093000180910001808384
:1000B000FF91EF918F910F900FBE0F901F901895A9
:1000C00087E690E09093C5008093C4001092C00032
:1000D00088E18093C1008091C10080688093C10055
:1000E00086E08093C20083B7817F83BF80916400E4
:1000F0008D6F80936400789483B7816083BF889507
:0C01000083B78E7F83BFF8CFF894FFCF49
:00000001FF
