:100000000C94ED000C94F7000C94F7000C94F7009E
:100010000C94F7000C94F7000C94F7000C94F70084
:100020000C94F7000C94F7000C94F7000C94F70074
:100030000C94F7000C94F7000C94F7000C94F70064
:100040000C94F7000C94F7000C94F7000C94F70054
:100050000C94F7000C94F7000C94F7000C94F70044
:100060000C94F7000C94F700310331033402310390
:10007000310334022C032C03310234033B033402DA
:100080003103310334022C0331033B022C042704D7
:1000900025042004310331033402310331033402D7
:1000A0002C032C033102340331032C0227032503D4
:1000B00027022C0331032C022708270322031F02E7
:1000C0003B0431042C0331032C022C022C022002AD
:1000D000250227012C022705270420041D032C03D9
:1000E0003102340234023B0234022C013102310568
:1000F0003B0431042C0331032C022C022C0220027D
:10010000250227012C022705270420041D032C03A8
:100110003102200220022702200220031D050001D7
:10012000043102420142050102310231032C034233
:10013000024204010242022703250327022C033155
:10014000032C022703250327013B04010242013B44
:10015000013103310334023404010231012C012541
:100160000327032C02310401022C0227032C032E47
:10017000022C0327032502270C0104001D0431046F
:100180002C0331032C022C022C0220022502270111
:100190002C022705270420041D032C033102200212
:1001A00020022702200220031D05003B0431042CFD
:1001B0000331032C022C022C022002250227012CE1
:1001C000022705270420041D032C033102200220EE
:1001D000022702200220031D0D0011241FBECFEFB5
:1001E000D8E0DEBFCDBF0E9427010C9452010C94D1
:1001F0000000DC0140E0242F30E0FD01E20FF31F9E
:100200009491992319F1F9013196EA0FFB1FE491BA
:10021000E69F9001E79F300D1124913011F097BDBA
:10022000569A2115310549F08FE99FE00197F1F7C2
:1002300000C0000021503109F4CF56988FE59AEEA6
:100240000197F1F700C000004E5FD5CF089584B547
:10025000826084BD84B5806484BD85B5846085BDBD
:1002600066E970E08BEA91E00E94F9006DE770E0CA
:100270008CE791E00E94F90066E970E08FE191E07F
:100280000E94F9006DE770E088E690E00E94F900B6
:100290002FEF83E294EF215080409040E1F700C0BF
:0802A0000000DECFF894FFCF4F
:107E0000112484B714BE81FFF0D085E080938100F7
:107E100082E08093C00088E18093C10086E0809377
:107E2000C20080E18093C4008EE0C9D0259A86E02C
:107E300020E33CEF91E0309385002093840096BBD3
:107E4000B09BFECF1D9AA8958150A9F7CC24DD24C4
:107E500088248394B5E0AB2EA1E19A2EF3E0BF2EE7
:107E6000A2D0813461F49FD0082FAFD0023811F036
:107E7000013811F484E001C083E08DD089C08234E0
:107E800011F484E103C0853419F485E0A6D080C0E4
:107E9000853579F488D0E82EFF2485D0082F10E0AE
:107EA000102F00270E291F29000F111F8ED06801E7
:107EB0006FC0863521F484E090D080E0DECF843638
:107EC00009F040C070D06FD0082F6DD080E0C81688
:107ED00080E7D80618F4F601B7BEE895C0E0D1E017
:107EE00062D089930C17E1F7F0E0CF16F0E7DF06D8
:107EF00018F0F601B7BEE89568D007B600FCFDCFD4
:107F0000A601A0E0B1E02C9130E011968C91119780
:107F100090E0982F8827822B932B1296FA010C0160
:107F200087BEE89511244E5F5F4FF1E0A038BF0790
:107F300051F7F601A7BEE89507B600FCFDCF97BE46
:107F4000E89526C08437B1F42ED02DD0F82E2BD052
:107F50003CD0F601EF2C8F010F5F1F4F84911BD097
:107F6000EA94F801C1F70894C11CD11CFA94CF0C13
:107F7000D11C0EC0853739F428D08EE10CD085E9AC
:107F80000AD08FE07ACF813511F488E018D01DD067
:107F900080E101D065CF982F8091C00085FFFCCF94
:107FA0009093C60008958091C00087FFFCCF809118
:107FB000C00084FD01C0A8958091C6000895E0E648
:107FC000F0E098E1908380830895EDDF803219F02E
:107FD00088E0F5DFFFCF84E1DECF1F93182FE3DFCA
:107FE0001150E9F7F2DF1F91089580E0E8DFEE27F6
:047FF000FF270994CA
:027FFE00040479
:0400000300007E007B
:00000001FF