:100000000C9434000C9449000C9449000C94490061
:100010000C9449000C9449000C9449000C9449003C
:100020000C9449000C9449000C9449000C9449002C
:100030000C9449000C9449000C9449000C9449001C
:100040000C9449000C9449000C9449000C9449000C
:100050000C9449000C9449000C9449000C944900FC
:100060000C9449000C94490011241FBECFEFD8E036
:10007000DEBFCDBF12E0A0E0B1E0ECE2F2E002C0F2
:1000800005900D92A237B107D9F70E948B000C940E
:1000900014010C940000813011F087BD569A61154F
:1000A000710549F08FE99FE00197F1F700C000006A
:1000B00061507109F4CF56980895EF92FF920F9313
:1000C0001F93CF937C018B01C0E02C2F30E0A70160
:1000D000420F531FFA0184918823B9F02F5F3F4FDD
:1000E000F701E20FF31F2491FA018491209FB001E0
:1000F000219F700D11240E944B008FE59AEE01970D
:10010000F1F700C00000CE5FE0CFCF911F910F91BB
:10011000FF90EF900895CF93DF93CDB7DEB7C2572E
:10012000D1400FB6F894DEBF0FBECDBF8FE2E0E046
:10013000F1E0DE01AC5BBE4F01900D928A95E1F7D4
:100140008FE2EFE2F1E0DE01AB5EBE4F01900D9277
:100150008A95E1F78DE5EEE5F1E0DE01A854BF4FA9
:1001600001900D928A95E1F787EBEBEBF1E0DE0170
:10017000119601900D928A95E1F784B5826084BD55
:1001800084B5806484BD85B5846085BD10E0612F31
:1001900070E084E491E08C0F9D1F860F971FFC0197
:1001A00024912223E1F06F5F7F4FE4E4F1E0EC0F54
:1001B000FD1FE60FF71F6491FC018491F6E96F9F24
:1001C000B00111240E944B002FEF83E294EF2150E5
:1001D00080409040E1F700C000001E5FD8CF66E984
:1001E00070E0CE018C5B9E4F0E945D006DE770E079
:1001F000CE018B5E9E4F0E945D0066E970E0CE01ED
:1002000088549F4F0E945D006DE770E0CE0101961B
:100210000E945D00FFEF23E284EFF1502040804018
:0C022000E1F700C00000DBCFF894FFCF36
:10022C003B0431042C0331032C022C022C0220023F
:10023C00250227012C022705270420041D032C036B
:10024C003102200220022702200220031D0D001D76
:10025C000431042C0331032C022C022C0220022525
:10026C000227012C022705270420041D032C03312F
:10027C0002200220022702200220031D0500010497
:10028C003102420142050102310231032C034202C8
:10029C004204010242022703250327022C033103E7
:1002AC002C022703250327013B04010242013B01D9
:1002BC003103310334023404010231012C012503D2
:1002CC0027032C02310401022C0227032C032E02DB
:1002DC002C0327032502270C0104003103310334BE
:1002EC00023103310334022C032C03310234033B5F
:1002FC000334023103310334022C0331033B022C4F
:10030C000427042504200431033103340231033162
:10031C000334022C032C033102340331032C022747
:10032C0003250327022C0331032C02270827032261
:10033C00031F023B0431042C0331032C022C022C2E
:10034C00022002250227012C022705270420041D68
:10035C00032C033102340234023B0234022C0131EF
:10036C000231053B0431042C0331032C022C022CEA
:10037C00022002250227012C022705270420041D38
:10038C00032C033102200220022702200220031D2D
:02039C0005005A
:107E0000112484B714BE81FFF0D085E080938100F7
:107E100082E08093C00088E18093C10086E0809377
:107E2000C20080E18093C4008EE0C9D0259A86E02C
:107E300020E33CEF91E0309385002093840096BBD3
:107E4000B09BFECF1D9AA8958150A9F7CC24DD24C4
:107E500088248394B5E0AB2EA1E19A2EF3E0BF2EE7
:107E6000A2D0813461F49FD0082FAFD0023811F036
:107E7000013811F484E001C083E08DD089C08234E0
:107E800011F484E103C0853419F485E0A6D080C0E4
:107E9000853579F488D0E82EFF2485D0082F10E0AE
:107EA000102F00270E291F29000F111F8ED06801E7
:107EB0006FC0863521F484E090D080E0DECF843638
:107EC00009F040C070D06FD0082F6DD080E0C81688
:107ED00080E7D80618F4F601B7BEE895C0E0D1E017
:107EE00062D089930C17E1F7F0E0CF16F0E7DF06D8
:107EF00018F0F601B7BEE89568D007B600FCFDCFD4
:107F0000A601A0E0B1E02C9130E011968C91119780
:107F100090E0982F8827822B932B1296FA010C0160
:107F200087BEE89511244E5F5F4FF1E0A038BF0790
:107F300051F7F601A7BEE89507B600FCFDCF97BE46
:107F4000E89526C08437B1F42ED02DD0F82E2BD052
:107F50003CD0F601EF2C8F010F5F1F4F84911BD097
:107F6000EA94F801C1F70894C11CD11CFA94CF0C13
:107F7000D11C0EC0853739F428D08EE10CD085E9AC
:107F80000AD08FE07ACF813511F488E018D01DD067
:107F900080E101D065CF982F8091C00085FFFCCF94
:107FA0009093C60008958091C00087FFFCCF809118
:107FB000C00084FD01C0A8958091C6000895E0E648
:107FC000F0E098E1908380830895EDDF803219F02E
:107FD00088E0F5DFFFCF84E1DECF1F93182FE3DFCA
:107FE0001150E9F7F2DF1F91089580E0E8DFEE27F6
:047FF000FF270994CA
:027FFE00040479
:0400000300007E007B
:00000001FF