:100000000C94ED000C94F7000C94F7000C94F7009E
:100010000C94F7000C94F7000C94F7000C94F70084
:100020000C94F7000C94F7000C94F7000C94F70074
:100030000C94F7000C94F7000C94F7000C94F70064
:100040000C94F7000C94F7000C94F7000C94F70054
:100050000C94F7000C94F7000C94F7000C94F70044
:100060000C94F7000C94F700310331033402310390
:10007000310334022C032C03310234033B033402DA
:100080003103310334022C0331033B022C042704D7
:1000900025042004310331033402310331033402D7
:1000A0002C032C033102340331032C0227032503D4
:1000B00027022C0331032C022708270322031F02E7
:1000C0003B0431042C0331032C022C022C022002AD
:1000D000250227012C022705270420041D032C03D9
:1000E0003102340234023B0234022C013102310568
:1000F0003B0431042C0331032C022C022C0220027D
:10010000250227012C022705270420041D032C03A8
:100110003102200220022702200220031D050001D7
:10012000043102420142050102310231032C034233
:10013000024204010242022703250327022C033155
:10014000032C022703250327013B04010242013B44
:10015000013103310334023404010231012C012541
:100160000327032C02310401022C0227032C032E47
:10017000022C0327032502270C0104001D0431046F
:100180002C0331032C022C022C0220022502270111
:100190002C022705270420041D032C033102200212
:1001A00020022702200220031D05003B0431042CFD
:1001B0000331032C022C022C022002250227012CE1
:1001C000022705270420041D032C033102200220EE
:1001D000022702200220031D0D0011241FBECFEFB5
:1001E000D8E0DEBFCDBF0E9427010C9452010C94D1
:1001F0000000DC0140E0242F30E0FD01E20FF31F9E
:100200009491992319F1F9013196EA0FFB1FE491BA
:10021000E69F9001E79F300D1124913011F097BDBA
:10022000569A2115310549F08FE99FE00197F1F7C2
:1002300000C0000021503109F4CF56988FE59AEEA6
:100240000197F1F700C000004E5FD5CF089584B547
:10025000826084BD84B5806484BD85B5846085BDBD
:1002600066E970E08BEA91E00E94F9006DE770E0CA
:100270008CE791E00E94F90066E970E08FE191E07F
:100280000E94F9006DE770E088E690E00E94F900B6
:100290002FEF83E294EF215080409040E1F700C0BF
:0802A0000000DECFF894FFCF4F
:00000001FF
