:100000000C9434000C943E000C943E000C943E0082
:100010000C943E000C943E000C943E000C943E0068
:100020000C943E000C943E000C943E000C943E0058
:100030000C943E000C943E000C943E000C943E0048
:100040000C943E000C943E000C943E000C943E0038
:100050000C943E000C943E000C943E000C943E0028
:100060000C943E000C943E0011241FBECFEFD8E04C
:10007000DEBFCDBF0E9440000C9485000C940000B0
:100080008FE084B915B890E020E030E041E052E024
:1000900063E001C0932F86B1882361F0E7E8F3E1C4
:1000A0003197F1F700C00000329929C0319929C079
:1000B000309929C0992379F386B18111ECCF923020
:1000C00079F09330C1F0913029F72F3011F02F5F84
:1000D00001C020E0822F8695822785B9932FDBCF40
:1000E000222311F0215001C02FE0822F8695822714
:1000F00085B9932FD0CF15B8932F20E0CCCF942F74
:0E010000DBCF952FD9CF962FD7CFF894FFCF16
:00000001FF
