:100000000C9434000C943E000C943E000C943E0082
:100010000C943E000C943E000C943E000C943E0068
:100020000C943E000C943E000C943E000C943E0058
:100030000C943E000C943E000C943E000C943E0048
:100040000C943E000C943E000C943E000C943E0038
:100050000C943E000C943E000C943E000C943E0028
:100060000C943E000C943E0011241FBECFEFD8E04C
:10007000DEBFCDBF0E9440000C947F000C940000B6
:100080008FE084B915B890E020E040E031E052E024
:1000900063E001C0942F86B1882331F0329929C0E2
:1000A000319929C0309929C09923A9F386B18111CA
:1000B000F2CF923079F09330C1F0913059F72F3070
:1000C00011F02F5F01C020E0822F8695822785B92D
:1000D000942FE1CF222311F0215001C02FE0822F75
:1000E0008695822785B9942FD6CF15B8942F20E016
:1000F000D2CF932FDBCF952FD9CF962FD7CFF89490
:02010000FFCF2F
:00000001FF
