:100000000C9434000C9446000C9446000C9446006A
:100010000C9446000C9446000C9446000C94460048
:100020000C9446000C9446000C9446000C94480036
:100030000C9446000C9446000C9446000C94460028
:100040000C9446000C9446000C9446000C94460018
:100050000C9446000C9446000C9446000C94460008
:100060000C9446000C94460011241FBECFEFD8E03C
:10007000DEBFCDBF21E0A0E0B1E001C01D92A536FA
:10008000B207E1F70E947C000C94AC000C940000D5
:100090001F920F920FB60F9211248F93EF93FF933D
:1000A00015B880910001833611F410920001E0919F
:1000B0000001F0E0EF5FFE4F8081882339F0289A3D
:1000C000E0910001F0E0EF5FFE4F10824F9B07C010
:1000D000E0910001F0E0EF5FFE4F81E080838091CE
:1000E00000018F5F80930001FF91EF918F910F903E
:1000F0000FBE0F901F90189584E6E1E0F1E0DF015C
:100100001D928A95E9F71092000183B7817F83BF22
:1001100081E084B980918100886080938100809122
:10012000810082608093810010928500109284008B
:100130008FE19EE4909389008093880080916F0006
:10014000826080936F00789483B7816083BF8895C5
:0C01500083B78E7F83BFF8CFF894FFCFF9
:00000001FF
