:100000000C9434000C9451000C9451000C94510049
:100010000C9451000C9451000C9451000C9451001C
:100020000C9451000C9451000C9451000C9451000C
:100030000C9451000C9451000C9451000C945100FC
:100040000C9451000C9464000C9451000C945100D9
:100050000C9451000C9451000C9451000C945100DC
:100060000C9451000C94510011241FBECFEFD8E026
:10007000DEBFCDBF21E0AEE1B1E001C01D92A533EE
:10008000B207E1F711E0A0E0B1E0E6EAF7E002C074
:1000900005900D92AE31B107D9F70E94AD000C94D6
:1000A000D1030C9400009091C00095FFFCCF809389
:1000B000C60080E090E008958091C00087FFFCCFEB
:1000C0008091C60090E008951F920F920FB60F9294
:1000D00011242F933F934F935F936F937F938F934D
:1000E0009F93AF93BF93CF93EF93FF93CEB5909130
:1000F000200181E0C91380E080931E0181E080939C
:100100001F01809120011F928F9380E091E09F93C7
:100110008F930E9406011F92CF938FE091E09F93EF
:100120008F930E9406018DB79EB708960FB6F8947C
:100130009EBF0FBE8DBFFF91EF91CF91BF91AF9149
:100140009F918F917F916F915F914F913F912F91EF
:100150000F900FBE0F901F90189597B1956097B9AB
:10016000579A14B827E630E03093C5002093C400B6
:100170001092C00098E19093C10096E09093C20065
:1001800021E231E043E550E050932A0140932901F8
:100190004CE550E050932C0140932B0193E0909359
:1001A000240110922E0110922D01309334012093DE
:1001B0003301309332012093310130933001209389
:1001C0002F0190E194B990EC9CBD78948F3FE9F0B9
:1001D00080932001982F28E030E097FF02C0429AD8
:1001E00001C04298409A4098990F21503109A9F7CF
:1001F00090911F019923E1F390911E01911101C08B
:100200005F9A10921F018F5FE1CFFFCFA0E0B0E0B7
:10021000ECE0F1E00C94AA03AE014B5F5F4FFA01F2
:1002200061917191AF0180913101909132010E94F1
:100230001C01E2E00C94C603ACE0B0E0E2E2F1E0C5
:100240000C949A037C016B018A01FC0117821682CF
:10025000838181FFBDC1CE0101964C01F7019381DD
:10026000F60193FD859193FF81916F01882309F435
:10027000ABC1853239F493FD859193FF81916F0174
:10028000853229F4B70190E00E940403E7CF512C96
:10029000312C20E02032A0F48B3269F030F480322F
:1002A00059F0833269F420612CC08D3239F08033EB
:1002B00039F4216026C02260246023C0286021C058
:1002C00027FD27C030ED380F3A3078F426FF06C0FE
:1002D000FAE05F9E300D1124532E13C08AE0389E41
:1002E000300D1124332E20620CC08E3221F426FDF5
:1002F0006BC1206406C08C3611F4206802C08836B9
:1003000041F4F60193FD859193FF81916F01811175
:10031000C1CF982F9F7D9554933028F40C5F1F4FC9
:10032000FFE3F9830DC0833631F0833771F08335F5
:1003300009F05BC022C0F801808189830E5F1F4FE6
:1003400044244394512C540115C03801F2E06F0E3F
:10035000711CF801A080B18026FF03C0652D70E0FC
:1003600002C06FEF7FEFC5012C870E94F9022C01BC
:1003700083012C852F77222E17C03801F2E06F0EF3
:10038000711CF801A080B18026FF03C0652D70E0CC
:1003900002C06FEF7FEFC5012C870E94EE022C0197
:1003A0002C852068222E830123FC1BC0832D90E026
:1003B00048165906B0F4B70180E290E00E940403A9
:1003C0003A94F4CFF50127FC859127FE81915F01D6
:1003D000B70190E00E94040331103A94F1E04F1A03
:1003E00051084114510471F7E5C0843611F0893683
:1003F00039F5F80127FF07C06081718182819381FF
:100400000C5F1F4F08C060817181072E000C880BA4
:10041000990B0E5F1F4F2F76722E97FF09C0909594
:100420008095709561957F4F8F4F9F4F2068722EFA
:100430002AE030E0A4010E943C03A82EA81844C082
:10044000853729F42F7EB22E2AE030E025C0F22F26
:10045000F97FBF2E8F36C1F018F4883579F0B4C01B
:10046000803719F0883721F0AFC02F2F2061B22ECE
:10047000B4FE0DC08B2D8460B82E09C024FF0AC0C5
:100480009F2F9660B92E06C028E030E005C020E11D
:1004900030E002C020E132E0F801B7FE07C0608121
:1004A0007181828193810C5F1F4F06C060817181D1
:1004B00080E090E00E5F1F4FA4010E943C03A82E35
:1004C000A818FB2DFF777F2E76FE0BC0372D3E7FC1
:1004D000A51450F474FE0AC072FC08C0372D3E7E8D
:1004E00005C0BA2C372D03C0BA2C01C0B52C34FF7F
:1004F0000DC0FE01EA0DF11D8081803311F4397EBB
:1005000009C032FF06C0B394B39404C0832F867829
:1005100009F0B39433FD13C030FF06C05A2CB31456
:1005200018F4530C5B18B32CB31468F4B70180E2D1
:1005300090E03C870E940403B3943C85F5CFB3144C
:1005400010F43B1801C0312C34FF12C0B70180E316
:1005500090E03C870E9404033C8532FF17C031FDC8
:1005600003C088E790E002C088E590E0B7010CC0C6
:10057000832F867859F031FF02C08BE201C080E200
:1005800037FD8DE2B70190E00E940403A51438F412
:10059000B70180E390E00E9404035A94F7CFAA9435
:1005A000F401EA0DF11D8081B70190E00E9404037F
:1005B000A110F5CF332009F451CEB70180E290E0CD
:1005C0000E9404033A94F6CFF7018681978102C016
:1005D0008FEF9FEF2C96E2E10C94B603FC0105909F
:1005E000615070400110D8F7809590958E0F9F1F35
:1005F0000895FC016150704001900110D8F780957A
:1006000090958E0F9F1F08950F931F93CF93DF93A5
:10061000FB01238121FD03C08FEF9FEF28C022FF44
:1006200016C046815781248135814217530744F40F
:10063000A081B1819D012F5F3F4F318320838C9337
:10064000268137812F5F3F4F3783268310C0EB0110
:10065000092F182F0084F185E02D0995892BE1F6EB
:100660008E819F8101969F838E83812F902FDF91B2
:10067000CF911F910F910895FA01AA27283051F1C7
:10068000203181F1E8946F936E7F6E5F7F4F8F4FC3
:100690009F4FAF4FB1E03ED0B4E03CD0670F781F22
:1006A000891F9A1FA11D680F791F8A1F911DA11D07
:1006B0006A0F711D811D911DA11D20D009F4689440
:1006C0003F912AE0269F11243019305D3193DEF6E8
:1006D000CF010895462F4770405D4193B3E00FD09E
:1006E000C9F7F6CF462F4F70405D4A3318F0495D89
:1006F00031FD4052419302D0A9F7EACFB4E0A6956C
:100700009795879577956795BA95C9F7009761058D
:10071000710508959B01AC010A2E069457954795E3
:1007200037952795BA95C9F7620F731F841F951FD8
:10073000A01D08952F923F924F925F926F927F92E9
:100740008F929F92AF92BF92CF92DF92EF92FF92E1
:100750000F931F93CF93DF93CDB7DEB7CA1BDB0B8D
:100760000FB6F894DEBF0FBECDBF09942A88398832
:1007700048885F846E847D848C849B84AA84B98439
:10078000C884DF80EE80FD800C811B81AA81B98145
:10079000CE0FD11D0FB6F894DEBF0FBECDBFED0159
:0607A0000895F894FFCF5C
:1007A60073686F756C642062653A2025750A00725D
:0E07B600656365697665643A2025750A000062
:107E0000112484B714BE81FFF0D085E080938100F7
:107E100082E08093C00088E18093C10086E0809377
:107E2000C20080E18093C4008EE0C9D0259A86E02C
:107E300020E33CEF91E0309385002093840096BBD3
:107E4000B09BFECF1D9AA8958150A9F7CC24DD24C4
:107E500088248394B5E0AB2EA1E19A2EF3E0BF2EE7
:107E6000A2D0813461F49FD0082FAFD0023811F036
:107E7000013811F484E001C083E08DD089C08234E0
:107E800011F484E103C0853419F485E0A6D080C0E4
:107E9000853579F488D0E82EFF2485D0082F10E0AE
:107EA000102F00270E291F29000F111F8ED06801E7
:107EB0006FC0863521F484E090D080E0DECF843638
:107EC00009F040C070D06FD0082F6DD080E0C81688
:107ED00080E7D80618F4F601B7BEE895C0E0D1E017
:107EE00062D089930C17E1F7F0E0CF16F0E7DF06D8
:107EF00018F0F601B7BEE89568D007B600FCFDCFD4
:107F0000A601A0E0B1E02C9130E011968C91119780
:107F100090E0982F8827822B932B1296FA010C0160
:107F200087BEE89511244E5F5F4FF1E0A038BF0790
:107F300051F7F601A7BEE89507B600FCFDCF97BE46
:107F4000E89526C08437B1F42ED02DD0F82E2BD052
:107F50003CD0F601EF2C8F010F5F1F4F84911BD097
:107F6000EA94F801C1F70894C11CD11CFA94CF0C13
:107F7000D11C0EC0853739F428D08EE10CD085E9AC
:107F80000AD08FE07ACF813511F488E018D01DD067
:107F900080E101D065CF982F8091C00085FFFCCF94
:107FA0009093C60008958091C00087FFFCCF809118
:107FB000C00084FD01C0A8958091C6000895E0E648
:107FC000F0E098E1908380830895EDDF803219F02E
:107FD00088E0F5DFFFCF84E1DECF1F93182FE3DFCA
:107FE0001150E9F7F2DF1F91089580E0E8DFEE27F6
:047FF000FF270994CA
:027FFE00040479
:0400000300007E007B
:00000001FF