:100000000C9435000C945D000C945D000C945D0024
:100010000C945D000C945D000C945D000C945D00EC
:100020000C945D000C945D000C945D000C945D00DC
:100030000C945D000C945D000C945D000C945D00CC
:100040000C9401020C945D000C94CF010C94A90156
:100050000C945D000C945D000C945D000C945D00AC
:100060000C945D000C945D004B0211241FBECFEF79
:10007000D8E0DEBFCDBF11E0A0E0B1E0E6EEF6E0F3
:1000800002C005900D92A83AB107D9F722E0A8EA7C
:10009000B1E001C01D92AE34B207E1F710E0C5E354
:1000A000D0E004C02197FE010E946603C433D1074B
:1000B000C9F70E9478020C9471030C940000CF924F
:1000C000DF92EF92FF920F931F93CF93DF936C0118
:1000D0007A018B01C0E0D0E0CE15DF0589F0D801B0
:1000E0006D918D01D601ED91FC910190F081E02D93
:1000F000C6010995892B11F47E0102C02196ECCF2F
:10010000C701DF91CF911F910F91FF90EF90DF908A
:10011000CF900895089580E090E00895FC01538DFC
:10012000448D252F30E0842F90E0821B930B5417D1
:1001300010F0CF96089501970895FC01918D828D5E
:10014000981761F0828DDF01A80FB11D5D968C912B
:10015000928D9F5F9F73928F90E008958FEF9FEF36
:100160000895FC01918D828D981731F0828DE80FF2
:10017000F11D858D90E008958FEF9FEF0895FC01AC
:10018000918D228D892F90E0805C9F4F821B910979
:100190008F7399270895FC01848DDF01A80FB11D8D
:1001A000A35ABF4F2C91848D90E001968F739927AD
:1001B000848FA689B7892C93A089B1898C9180649A
:1001C0008C93938D848D981306C00288F389E02D5B
:1001D00080818F7D80830895EF92FF920F931F930C
:1001E000CF93DF93EC0181E0888F9B8D8C8D9813EA
:1001F00005C0E889F989808185FD24C0F62E0B8D24
:1002000010E00F5F1F4F0F731127E02E8C8DE81247
:100210000CC00FB607FCFACFE889F989808185FF09
:10022000F5CFCE010E94CB00F1CF8B8DFE01E80F00
:10023000F11DE35AFF4FF0820B8FEA89FB89808121
:10024000806207C0EE89FF896083E889F98980812F
:100250008064808381E090E0DF91CF911F910F91C6
:10026000FF90EF900895CF93DF93EC01888D882362
:10027000C9F0EA89FB89808185FD05C0A889B98913
:100280008C9186FD0FC00FB607FCF5CF808185FFEE
:10029000F2CFA889B9898C9185FFEDCFCE010E945C
:1002A000CB00E7CFDF91CF9108950E946C03DC0172
:1002B00020E03FE368E0FD01E20FF11D908199230A
:1002C000F1F19D32C9F09E3269F538B940E050E055
:1002D00065B98FE99FE00197F1F700C0000015B8FC
:1002E0008FE99FE00197F1F700C000004F5F5F4F7B
:1002F0004233510569F716C038B940E050E065B99E
:100300008FE99FE00197F1F700C0000015B88FE971
:100310009FE00197F1F700C000004F5F5F4F463943
:10032000510569F718B81BB89FEF41EE84E0915072
:1003300040408040E1F700C000002F5FBCCF9FEF3E
:1003400025EA4EE0915020404040E1F700C0000017
:1003500008951F920F920FB60F9211242F933F937F
:100360004F935F936F937F938F939F93AF93BF93BD
:10037000EF93FF9381EB91E00E94CB00FF91EF910F
:10038000BF91AF919F918F917F916F915F914F91AD
:100390003F912F910F900FBE0F901F9018951F92B5
:1003A0000F920FB60F9211242F938F939F93EF9379
:1003B000FF93E091C101F091C2018081E091C701FA
:1003C000F091C80182FD12C090818091CA018F5FB7
:1003D0008F732091CB01821751F0E091CA01F0E0B8
:1003E000EF54FE4F958F8093CA0101C08081FF9129
:1003F000EF919F918F912F910F900FBE0F901F90B3
:1004000018951F920F920FB60F9211242F933F93BE
:100410008F939F93AF93BF938091AD019091AE0165
:10042000A091AF01B091B0013091AC0123E0230F56
:100430002D3720F40196A11DB11D05C026E8230F1C
:100440000296A11DB11D2093AC018093AD01909344
:10045000AE01A093AF01B093B0018091A80190913B
:10046000A901A091AA01B091AB010196A11DB11DF6
:100470008093A8019093A901A093AA01B093AB0126
:10048000BF91AF919F918F913F912F910F900FBE90
:100490000F901F901895E1EBF1E01382128288EE25
:1004A00093E0A0E0B0E084839583A683B7838CE4D7
:1004B00091E09183808385EC90E09587848784EC3C
:1004C00090E09787868780EC90E0918B808B81EC21
:1004D00090E0938B828B82EC90E0958B848B86EC02
:1004E00090E0978B868B118E128E138E148E08954A
:1004F000CF93DF93CDB7DEB7C854D1090FB6F894C8
:10050000DEBF0FBECDBF8FE387B984E88AB988E02C
:1005100084B9789484B5826084BD84B5816084BDDB
:1005200085B5826085BD85B5816085BD80916E0091
:10053000816080936E0010928100809181008260C2
:1005400080938100809181008160809381008091FF
:1005500080008160809380008091B10084608093EE
:10056000B1008091B00081608093B00080917A00EA
:10057000846080937A0080917A00826080937A0010
:1005800080917A00816080937A0080917A008068FF
:1005900080937A001092C100E091C101F091C201F4
:1005A00082E08083E091BD01F091BE011082E09174
:1005B000BF01F091C0018FEC80831092C901E091DE
:1005C000C501F091C60186E08083E091C301F091FE
:1005D000C401808180618083E091C301F091C401F6
:1005E000808188608083E091C301F091C4018081A3
:1005F00080688083E091C301F091C40180818F7D88
:10060000808384E3E0E0F1E0DE01119601900D9239
:100610008A95E1F784E1E4E3F1E0DE01D59601900B
:100620000D928A95E1F781EB91E00E94BF00892B42
:10063000D1F381EB91E00E949D00182F20ED280F4F
:100640002A3070F4FC01FF27F097EE0FFF1F81E0C6
:1006500090E08C0F9D1FE80FF91F84A995A912C087
:100660002FEB280F2A3188F49927FC01E154F10976
:10067000EE0FFF1F81E090E08C0F9D1FE80FF91F28
:10068000808191810E945701CECF2FE9280F2A3116
:1006900080F49927FC01E156F109EE0FFF1F81E07C
:1006A00090E08C0F9D1FE80FF91F808191810E94BF
:1006B0005701103209F0B7CF9FEF27E883E191503F
:1006C00020408040E1F700C00000ADCFEE0FFF1FDB
:1006D0000590F491E02D099481E090E0F8940C9459
:0606E0007103F894FFCF46
:1006E60070015A015F017E016C0190016A01A3014C
:1006F6007F0164016F018A0186016B018501690131
:100706006E0160015B018701740196017901730135
:1007160078017D018201690189018F0195018501B9
:100726009B017D01A201730100000000EC005F0047
:100736008E003301BF009D00B1002D2E2E2E002D00
:100746002E2D2E002E2D2D2D002E2D2D2E002D2D55
:100756002E2D002D2E2E2D002D2E2D2D002D2D2E45
:100766002E002D2D2D2D2D2D002E2E2D2E2E002E34
:100776002E2E2D2E002E2E2E2E2D002E2E2E2E2EF1
:080786002E002D2E2E2E2E0058
:00000001FF
