:100000000C9434000C943E000C943E000C943E0082
:100010000C943E000C943E000C943E000C943E0068
:100020000C943E000C943E000C943E000C943E0058
:100030000C943E000C943E000C943E000C943E0048
:100040000C943E000C943E000C943E000C943E0038
:100050000C943E000C943E000C943E000C943E0028
:100060000C943E000C943E0011241FBECFEFD8E04C
:10007000DEBFCDBF0E9440000C94C9020C9400006A
:100080008091B00080688093B0008091B000836060
:100090008093B0008091B10081608093B100809125
:1000A0007C00806480937C0080917A0086608093DD
:1000B0007A0080917A00806880937A00239A8091F8
:1000C0007A00806480937A0080917A0086FDFCCF6C
:1000D000609178007091790080E090E00E94CE01FC
:1000E00020E030E040EA50E40E945C0220E030EC86
:1000F0004FE754E40E942D019B01AC0160E070E0E9
:1001000080EA90E40E94C0006B017C0120E038E9A5
:1001100047E357E40E945C024B015C01A701960192
:1001200060E070E080EA90E40E94C00020E030E0EF
:1001300040EA50E40E94C1009B01AC01C501B4013A
:100140000E942D010E949F010E94CE0120E030E517
:1001500043E457E40E942D0120E030E04FE753E4F0
:100160000E945C020E949F016093B3002FEF80E722
:1001700092E0215080409040E1F700C000009FCF06
:100180005058BB27AA270E94D8000C9422020E9434
:10019000140238F00E941B0220F039F49F3F19F43A
:1001A00026F40C9411020EF4E095E7FB0C940B027C
:1001B000E92F0E94330258F3BA17620773078407C6
:1001C000950720F079F4A6F50C9455020EF4E0950D
:1001D0000B2EBA2FA02D0B01B90190010C01CA0101
:1001E000A0011124FF27591B99F0593F50F4503EAC
:1001F00068F11A16F040A22F232F342F4427585F9E
:10020000F3CF469537952795A795F0405395C9F7B5
:100210007EF41F16BA0B620B730B840BBAF091506D
:10022000A1F0FF0FBB1F661F771F881FC2F70EC00C
:10023000BA0F621F731F841F48F4879577956795DF
:10024000B795F7959E3F08F0B0CF9395880F08F0CB
:100250009927EE0F9795879508950E9441010C9478
:1002600022020E941B0258F00E94140240F029F45E
:100270005F3F29F00C940B0251110C9456020C9420
:1002800011020E94330268F39923B1F3552391F3CD
:10029000951B550BBB27AA2762177307840738F0F5
:1002A0009F5F5F4F220F331F441FAA1FA9F335D052
:1002B0000E2E3AF0E0E832D091505040E695001C06
:1002C000CAF72BD0FE2F29D0660F771F881FBB1FC0
:1002D000261737074807AB07B0E809F0BB0B802D9E
:1002E000BF01FF2793585F4F3AF09E3F510578F0CA
:1002F0000C940B020C9456025F3FE4F3983ED4F347
:10030000869577956795B795F7959F5FC9F7880F9D
:10031000911D9695879597F90895E1E0660F771FEF
:10032000881FBB1F621773078407BA0720F0621B80
:10033000730B840BBA0BEE1F88F7E09508950E94AB
:100340003B0288F09F5798F0B92F9927B751B0F02A
:10035000E1F0660F771F881F991F1AF0BA95C9F749
:1003600014C0B13091F00E945502B1E008950C9490
:100370005502672F782F8827B85F39F0B93FCCF343
:10038000869577956795B395D9F73EF490958095C6
:10039000709561957F4F8F4F9F4F0895E89409C0E6
:1003A00097FB3EF490958095709561957F4F8F4FA8
:1003B0009F4F9923A9F0F92F96E9BB279395F695BE
:1003C000879577956795B795F111F8CFFAF4BB0F3C
:1003D00011F460FF1BC06F5F7F4F8F4F9F4F16C0A0
:1003E000882311F096E911C0772321F09EE8872F2A
:1003F000762F05C0662371F096E8862F70E060E0E6
:100400002AF09A95660F771F881FDAF7880F96955E
:10041000879597F9089597F99F6780E870E060E005
:1004200008959FEF80EC089500240A94161617068D
:1004300018060906089500240A94121613061406D5
:1004400005060895092E0394000C11F4882352F038
:10045000BB0F40F4BF2B11F460FF04C06F5F7F4FF0
:100460008F4F9F4F089557FD9058440F551F59F0D7
:100470005F3F71F04795880F97FB991F61F09F3F91
:1004800079F087950895121613061406551FF2CFBA
:100490004695F1DF08C0161617061806991FF1CF0A
:1004A00086957105610508940895E894BB27662731
:1004B0007727CB0197F908950E946F020C942202CE
:1004C0000E94140238F00E941B0220F0952311F0C4
:1004D0000C940B020C94110211240C9456020E94ED
:1004E000330270F3959FC1F3950F50E0551F629F43
:1004F000F001729FBB27F00DB11D639FAA27F00D7D
:10050000B11DAA1F649F6627B00DA11D661F829FA3
:100510002227B00DA11D621F739FB00DA11D621F88
:10052000839FA00D611D221F749F3327A00D611DA5
:10053000231F849F600D211D822F762F6A2F112487
:100540009F5750409AF0F1F088234AF0EE0FFF1FBA
:10055000BB1F661F771F881F91505040A9F79E3F11
:10056000510580F00C940B020C9456025F3FE4F3AB
:10057000983ED4F3869577956795B795F795E79567
:100580009F5FC1F7FE2B880F911D9695879597F970
:060590000895F894FFCF6E
:107E0000112484B714BE81FFF0D085E080938100F7
:107E100082E08093C00088E18093C10086E0809377
:107E2000C20080E18093C4008EE0C9D0259A86E02C
:107E300020E33CEF91E0309385002093840096BBD3
:107E4000B09BFECF1D9AA8958150A9F7CC24DD24C4
:107E500088248394B5E0AB2EA1E19A2EF3E0BF2EE7
:107E6000A2D0813461F49FD0082FAFD0023811F036
:107E7000013811F484E001C083E08DD089C08234E0
:107E800011F484E103C0853419F485E0A6D080C0E4
:107E9000853579F488D0E82EFF2485D0082F10E0AE
:107EA000102F00270E291F29000F111F8ED06801E7
:107EB0006FC0863521F484E090D080E0DECF843638
:107EC00009F040C070D06FD0082F6DD080E0C81688
:107ED00080E7D80618F4F601B7BEE895C0E0D1E017
:107EE00062D089930C17E1F7F0E0CF16F0E7DF06D8
:107EF00018F0F601B7BEE89568D007B600FCFDCFD4
:107F0000A601A0E0B1E02C9130E011968C91119780
:107F100090E0982F8827822B932B1296FA010C0160
:107F200087BEE89511244E5F5F4FF1E0A038BF0790
:107F300051F7F601A7BEE89507B600FCFDCF97BE46
:107F4000E89526C08437B1F42ED02DD0F82E2BD052
:107F50003CD0F601EF2C8F010F5F1F4F84911BD097
:107F6000EA94F801C1F70894C11CD11CFA94CF0C13
:107F7000D11C0EC0853739F428D08EE10CD085E9AC
:107F80000AD08FE07ACF813511F488E018D01DD067
:107F900080E101D065CF982F8091C00085FFFCCF94
:107FA0009093C60008958091C00087FFFCCF809118
:107FB000C00084FD01C0A8958091C6000895E0E648
:107FC000F0E098E1908380830895EDDF803219F02E
:107FD00088E0F5DFFFCF84E1DECF1F93182FE3DFCA
:107FE0001150E9F7F2DF1F91089580E0E8DFEE27F6
:047FF000FF270994CA
:027FFE00040479
:0400000300007E007B
:00000001FF